:020000040000FA
:0600000002011A0226DBDA
:03002B00022E3270
:03003B00022E8A08
:03004300022E0981
:0300530002274E33
:03006B00022E5B07
:10008300022547E5C754F84401F5C779012200006A
:100093000080FB120086B90003020104E479217891
:1000A30008B800028004F709D8FCE479297802B87B
:1000B30000028004F709D8FCE49002817826790ACB
:1000C3008002F0A3D8FCD9FA781A90014A7A01BACF
:1000D30000028007E493A3F608DAF97AA67B0B9073
:1000E300014B78D479048015E493A3AD82AE838A5F
:1000F300828B83F0A3AA82AB838D828E83D8E9D9C6
:10010300E775829E7583DC740312012C75829175E9
:100113008300740012012C75D00075813F7518811E
:10012300751902759F00020096C09FF59FE473D076
:100133009F22D083D082C09FE493C0E0740193C018
:10014300E0740293F59F2201FF0000B40000280031
:100153002800283075A000A000A000A0000008001F
:1001630008E001F000100010001000100010001053
:100173000050005000500010001000D00700000095
:100183000000000F0001000500307507001000019A
:100193000081FF00000000FF1C073A072207FF024F
:1001A300020208025000A0000000E8030262850179
:1001B30000003E85028A85010000FD0B027885015F
:1001C3000000B302028A85010000FE0B025E850176
:1001D3000000C902028A85010000FF0B026085014D
:1001E3000000CB02028A85010000000C026485082E
:1001F3000000CC02028A85010000010C028C8501FB
:100203000000020CFF0100FF200262850100004193
:1002130085028A85010000660C02668500000000E5
:10022300000256850300001903160D160D160D1650
:100233000D160D160D160D160D160D160D160D16A3
:100243000D160DAA0FC20FA40F0202020202020230
:100253000202010D0000001001026285010000444A
:1002630085028A85010000A70C024C85010000402D
:1002730007028A85010000A80C024A8501000019C3
:1002830083028A85010000A90C025A85010000B986
:1002930082028A85010000AA0C02688501000061C0
:1002A30081028A85010000AB0C026C85010000739A
:1002B30081028A85010000AC0C026E850100009763
:1002C30081028A85010000AD0C0270850100004F98
:1002D30081028A85010000AE0C027485010000AB27
:1002E30082028A85010000AF0C027685010000B00E
:1002F3000C01E803053F100AFFFFFF0001307503FF
:1003030002010600000000000000000000000000E1
:10031300000000000000000000000000000000FFDB
:10032300FF0600800CE803850A524C323534582D01
:1003330056312E38330D0A0053657269616C436F71
:100343006D003936303000303031303000303032EB
:100353003000303030303030000A09536572696143
:100363006C436F6D000000000000000000000000FF
:10037300000000000000000201060302F0FF5365C5
:100383007269616C436F6D000000000000000000A3
:10039300000000B4140000CC14D214BA140A436849
:1003A30061726163746572697374696320310002F9
:1003B300436861726163746572697374696320323F
:1003C3000008436861726163746572697374696379
:1003D30020330010436861726163746572697374DA
:1003E30069632034001801020304050000000000C3
:1003F300000000000000000000004368617220500C
:10040300617261706F7274000A01020304050000D7
:1004130000000000000000000000000000436861CD
:100423007220426C6564617461706F7274001201B2
:1004330002030405000000000000000000000000AB
:10044300000000436861722053657269616C706FCC
:100453007274000262850100003885028A850100FA
:1004630000FB0D027C850300008E0B025285010008
:1004730000FC0D028A850100000D0E027E8501003D
:10048300008F0B0252850100000E0E028A850100C7
:10049300001F0E028085020000900B0252850100AE
:1004A30000200E028A85010000310E0282850000C1
:1004B30000910B025685030000920B025285010046
:1004C30000320E028A85010000430E028485020079
:1004D30000440E025685030000980B02528501006A
:1004E30000580E028A85010000660E02868503000D
:1004F30000670E0252850100007B0E028A8501000F
:10050300008C0E0288850100008D0E0256850300C3
:10051300009E0B025285010000A10E12013519CE77
:100523000312013530CE0312013561CE03120135BA
:100533009CCE03120135C6CE03120135F0CE031251
:10054300013507CF031201351ECF0312013535CF15
:10055300031201355ECF0312013571CF031201354A
:1005630087CF031201359ACF03120135C1CF03128E
:10057300013569DD021201356DDE02120135A5DE9A
:1005830002120135C8DE02120135D3DE0212013533
:10059300F6DE0212013505E002120135DAE002123D
:1005A300013555E102120135DDE10212013518E290
:1005B300021201354FE202120135DDE2021201356A
:1005C300B6E30212013516E40212013521E40212E8
:1005D3000135A0E402120135A3E402120135A6E4B9
:1005E3000212013535E50212013538E502120135F3
:1005F30068E50212013592E50212013580E6021226
:10060300013532E7021201352EA10312013556A13D
:100613000312013584A103120135BBA10312013575
:1006230019A20312013564A203120135AFA203120A
:100633000135EFA20312013535A30312013563A37C
:100643000312013520A4031201352AA40312013534
:1006530037A4031201356AA40312013536A5031228
:10066300013542A5031201355AA50312013564A5CC
:100673000312013549D80312013557D80312013546
:100683006FD80312013587D8031201353EEB0112EF
:100693000135EAEB0112013565EC0112013586EDF6
:1006A30001120135C2ED011201356BEE0112013564
:1006B30052EF01120135B6F0011201350DF10112AD
:1006C30001358EF1011201357EF201120135CBF2B3
:1006D3000112013551F30112013583F30112013582
:1006E30097F501120135D9F501120135F7F501121C
:1006F30001357AF6011201354EF70112013516F86C
:10070300011201358D8F03120135609003120135FB
:100713000991031201355C91031201350C92031206
:100723000135989203120135849303120135B39373
:1007330003120135C694031201350E9503120135D8
:10074300E395031201351F96031201353B960312FD
:100753000135B6DB0312013507BB031201351DBB9F
:100763000312013543BB031201355FBC031201358C
:1007730069BC031201359EBD0312013596BE0312F7
:100783000135079C03120135379D031201356A9D1C
:1007930003120135B49D031201357B9F031201350A
:1007A3004FDB01120135B9DB0112013518DD0112EE
:1007B300013528DD0112013555DD01120135ACDDAE
:1007C3000112013555DE011201355CDF01120135DD
:1007D30026E00112013586E101120135C9E101125A
:1007E30001356EE201120135BBE201120135E1E28E
:1007F30001120135EFE401120135F4E40112013570
:10080300F9E60112013546E701120135B9E7011294
:100813000135ECE7011201358EE80112013537E9A4
:10082300011201356FE90112013572E90112013537
:10083300BAE901120135FAE90112013551EA01124F
:100843000135ADC403120135C5C4031201350DC50D
:100853000312013523C5031201356AC5031201359D
:100863007EC6031201350BC70312013556C70312A7
:100873000135CC5200120135D85200120135135301
:100883000012013558530012013518540012013576
:100893009E54001201350355001201352F550012E5
:1008A3000135685500120135A657001201358A59E2
:1008B30000120135705B00120135B35C0012013583
:1008C300015F001201351360001201355E610012F1
:1008D30001356E62001201358B6200120135C6626A
:1008E30000120135E862001201354B630012013535
:1008F3000C6800120135A16800120135F26800127C
:1009030001351969001201356B69001201358969D6
:1009130000120135E36900120135CC6A001201357A
:10092300426C00120135C66C00120135B0960312F9
:100933000135BA9603120135FD9603120135189756
:1009430003120135A89703120135D097031201351D
:100953000D98031201354498031201356D98031263
:100963000135E29803120135F798031201350C990A
:10097300031201353D9903120135519903120135D3
:10098300769903120135B09903120135DC990312EC
:1009930001350A9A03120135559A03120135FF9A5C
:1009A30003120135419B031201358A9B0312013562
:1009B300B49B03120135DF9B031201355AD4031292
:1009C300013568C50212013596C502120135E4C628
:1009D30002120135C4C702120135E3C70212013501
:1009E30060C802120135A3C802120135F9C9021207
:1009F3000135BACA0212013541CD02120135E2CDE9
:100A030002120135D8CE02120135D5CF02120135BB
:100A13002FD102120135BAD102120135FFD20312CE
:100A2300013568D303120135BCD303120135E3D377
:100A33000312013514D40312013568AA03120135D8
:100A4300D5AA031201351CAB0312013534AC0312D2
:100A5300013530AD0312013513AE031201359DF09C
:100A630002120135DFF002120135B1F10212013534
:100A73008AF20212013584F30212013566F402127E
:100A83000135CFF40212013585F502120135F9F56E
:100A93000212013565F6021201358EF60212013596
:100AA30008F702120135A1F70212013506F8021206
:100AB30001351BF80212013561F8021201357AF88B
:100AC30002120135DFF802120135E2F80212013594
:100AD300B4C103120135DCC1031201351AC203127A
:100AE3000135D8C2031201353FC3031201355BC37D
:100AF3000312013583C303120135B3C30312013556
:100B0300C2C3031201353FC40312013565C4031286
:100B130001352D6D001201350B6F001201353D714A
:100B230000120135797100120135A67100120135E9
:100B3300907200120135DB72001201352673001228
:100B43000135387300120135787300120135AD7326
:100B530000120135FB73001201352A7400120135AE
:100B63004D74001201359A74001201351F7500127D
:100B73000135397700120135787900120135B979D9
:100B8300001201355B7B001201359C7B001201359D
:100B93000F7C001201355B7C00120135097D0012C8
:100BA3000135E47D0012013553B80212013551B904
:100BB30002120135EABF021201350BC202120135DE
:100BC300D6C3021201353EC5021201358F850112CB
:100BD30001353E86011201356B8601120135B1865E
:100BE30001120135E78701120135448801120135ED
:100BF300728801120135088A01120135828A0112B5
:100C030001359D8A01120135188B01120135728C51
:100C130001120135D28D01120135D88E0112013531
:100C2300399001120135529001120135B090011231
:100C330001359E9101120135D19101120135419285
:100C430001120135BB9201120135059301120135E1
:100C5300CF9301120135A49401120135839501123A
:100C630001350E96011201357C9601120135F0967D
:100C7300011201351B9701120135DA970112013573
:100C83003F99011201355C99011201357B990112DB
:100C930001356C9A01120135919A01120135BB9A03
:100CA30001120135369B01120135909B011201356A
:100CB300F99C01120135A79D01120135E89D01122E
:100CC30001357FAA02120135CDAA02120135D9AA34
:100CD30002120135B7AB02120135E8AB021201353E
:100CE30019AC0212013599AC02120135D1AC0212D2
:100CF300013523AD0212013560AD021201357DAF1E
:100D030002120135A3B1021201358EB3021201356D
:100D130078B502120135F57F001201353CC7011287
:100D230001356CC70112013545CE01120135CACF19
:100D330001120135C7D501120135AFD601120135B4
:100D4300ECD6011201350FD70112013540D701123C
:100D5300013549D70112013553D70112013541D865
:100D63000112013537D901120135189E01120135DF
:100D730017A2011201351DA20112013558A9011252
:100D8300013571AE0112013539B703120135CFB701
:100D930003120135E5B7031201355BB803120135C0
:100DA300CFB8031201350DB90312013581B903120E
:100DB3000135FAB90312013503BA031201350FBA2B
:100DC3000312013524BA0312013562BA0312013545
:100DD30078BA03120135D7BA03120135D5AE03121F
:100DE3000135E2AE03120135FCAE031201353BAF10
:100DF3000312013579AF03120135DEAF031201355A
:100E0300F3AF03120135FEAF031201350BB003122A
:100E1300013522B00312013530B0031201353BB066
:100E23000312013547B00312013556B003120135E1
:100E330061B00312013584B0031201352BB10312E3
:100E430001353BB10312013555B10312013572B1BE
:100E5300031201358EB103120135B3B1031201350B
:100E6300BEB103120135D3B103120135E7B1031249
:100E7300013548B2031201354EB20312013554B2A3
:100E8300031201355AB20312013572B2031201354E
:100E9300A5B203120135718E02120135F58E0212CD
:100EA3000135A48F021201350391021201352493F7
:100EB30002120135109402120135459402120135D4
:100EC3006794021201351695021201350E9702122C
:100ED3000135379702120135C99702120135FB9785
:100EE300021201350898021201355F98021201358A
:100EF300859802120135F29A02120135F59B02120E
:100F030001354D9C021201350080021201350A8120
:100F130002120135F18102120135FB810212013502
:100F23001D8202120135298202120135C283021287
:100F33000135F183021201350D85021201356685F3
:100F430002120135CC8602120135AB87021201353C
:100F5300078802120135748802120135AF88021224
:100F63000135EE8802120135A78B02120135C18BC0
:100F7300021201354D8C021201355B8C02120135D0
:100F8300B48C02120135C28C02120135358D021266
:100F93000135998D02120135E38D021201353BD2E1
:100FA300021201355DD20212013583D402120135DA
:100FB30098D702120135B0D80212013563D9021253
:100FC300013545DA02120135D3CF03120135F8CFCB
:100FD300031201356AD00312013513880312013558
:100FE3001C8803120135258803120135FC8803127E
:100FF3000135AD8A03120135E38A031201351D8BD6
:1010030003120135538B031201358D8B0312013506
:10101300C18B03120135ED8B03120135368C03129C
:101023000135708C03120135B98C03120135118D12
:1010330003120135468D03120135A18D03120135CB
:10104300DB8D031201352C8E03120135628E0312E0
:1010530001359C8E03120135CA8E03120135ED8EC4
:1010630003120135E0D9031201350CDA03120135FD
:1010730067DA0312013571DA0312013581DA0312DB
:101083000135A0BE03120135C5BE03120135EFBE03
:1010930003120135F6DC0312013527B301120135C2
:1010A3008CB50112013548B70112013535B801126B
:1010B3000135BCB8011201353CB90112013561B9E2
:1010C30001120135C4B901120135D0BC0112013539
:1010D3004CBD011201353BBE0112013573BE011235
:1010E3000135B6BE0112013562C001120135B7C028
:1010F3000112013504C10112013576C10112013516
:101103009DC101120135B7C101120135CCC20112D3
:101113000135DCC20112013503C40112013525C4B6
:10112300011201355BC401120135ACC50112013551
:10113300EBC50112013517C701120135ABDD0312EF
:101143000135B1FF01120135F0FF0112013598DDC0
:101153000312013520D90312013530D903120135A9
:1011630042D903120135D3D90312013573D50312C2
:101173000135F7D5031201355DD603120135F27F30
:1011830000120135EF7F0012013582DD03120135B4
:1011930092DD0312013595DD03120135F87F00124C
:1011A3000135EBC9031201356DCB03120135CECBEB
:1011B3000312013514CC0312013522B30312013596
:1011C300C9B3031201356BB40312013503B503121E
:1011D3000135BAB5031201352BB60312013553B6E7
:1011E3000312013561B60312013571B603120135DD
:1011F30003B70312013519B70312013523B70312DD
:10120300013536B70312013567DD0312013577DD8A
:101213000312013570D70312013599D70312013533
:10122300C2D70312013504D8031201352FFA011274
:10123300013539FA0112013579FA01120135C2FA81
:1012430001120135FCFA0112013556FB0112013579
:1012530075FB011201357EFB01120135CFFB011233
:101263000135F8FB0112013502FC011201356EFC58
:1012730001120135FCFC0112013555FD0112013546
:1012830083FD0112013503FE0112013546FE0112F1
:10129300013581FE0112013593FE01120135B2FEC3
:1012A30001120135BBFE0112013585FF0112013523
:1012B30078D103120135CDD1031201353BD203128C
:1012C3000135ABD20312013580C703120135AAC71A
:1012D300031201357FC80312013573C903120135A7
:1012E30076D60312013517CC031201354DCC031208
:1012F300013586CC03120135DFCD031201358BDABC
:1013030003120135A1DA03120135ABDA03120135F9
:10131300F5DA031201353ADC0312013500800312BA
:101323000135BD8003120135F88003120135208198
:1013330003120135828103120135CE810312013577
:10134300328203120135AC8203120135AE830312DC
:101353000135618503120135E385031201354886A2
:10136300031201355F8603120135688703120135C5
:10137300A68703120135EBA50312013504A6031258
:101383000135A5A603120135E5A603120135FEA614
:101393000312013531A7031201357EA7031201356C
:1013A300B2A703120135F4A703120135FEA90312F4
:1013B30001359B9C0212013524A002120135ACA118
:1013C3000212013503A20212013522A202120135D3
:1013D300A0A2021201353EA40212013522A5021277
:1013E30001350CA902120135DCA902120135737E05
:1013F30000120135E77E00120135802F00120135FE
:10140300902F00120135E92F00120135DD33001250
:101413000135A13400120135C735001201355636A6
:10142300001201351A370012013505380012013553
:101433001B39001201356F39001201350D3B0012C3
:101443000135803D00120135EB3D00120135254089
:10145300001201359F4200120135BF4300120135CE
:10146300C94500120135FD46001201352F4900120E
:101473000135054A00120135024B00120135914B2B
:1014830000120135554E00120135D94F00120135B6
:10149300355100120135E651001201354D5200124B
:1014A3000135A3E702120135EBE90212013585EAA2
:1014B300021201350CEC0212013554ED0212013512
:1014C30004EE0212013585EE0212013502EF02121B
:1014D300013550F00212013506F90212013561F9A6
:1014E300021201357EF902120135DCFA02120135CE
:1014F30058FB0212013539FC02120135C1FF0212F9
:10150300013526DB031201353BDD03120135D17FA3
:1015130000E066701008A3E066700A08A3E0667036
:101523000408A3E06622C3E7960809E7960809E7DB
:10153300960809E79622C3E09608A3E09608A3E07D
:101543009608A3E09622C008C3E096F50808A3E036
:1015530096420808A3E096420808A3E0964508705F
:1015630001D3D00822080808E630E71112199612B1
:101573001580080808C64480C618181822181818B9
:10158300E9799EC608CAC608CBC608CCC6C3702074
:101593007996CACBCC7019798ECBCC70137986CC63
:1015A300700EF9802ACA33CACB33CBCC33CC331970
:1015B30030E7F2CCCBCA3350147004EA30E00DE4C8
:1015C300CA3ACACB3BCBCC3CCC500209C3E913C6C5
:1015D300CC182313C6CB18C6CA18C6F92212162074
:1015E30020F01430E72B74FFFCFBFA747F8022E4B5
:1015F300FCFBFA7480801AB48008BC00F2BB00EFD5
:10160300800F50EBF9E4C39AFAE49BFBE49CFCE4FF
:1016130099C6CC18C6CB18C6CA18C6F922E4C9C6DF
:1016230008CAC608CBC6D3330308CCC63392F0C36B
:10163300947F402E94184019C9B90704CACBCC2211
:101643005025C309CA33CACB33CBCC33CC33D9F4FB
:1016530022F4600DC9CCC313CB13CBCA13CAD9F67A
:10166300CC22E4FCFBFA2214FCFBFA22E626184601
:101673001846184622E72719471947194722E6084B
:1016830046087009E626087005E633F4220822E7C7
:101693000947097009E727097005E733F42209228E
:1016A300E6084608C3134608336002E633F422E72C
:1016B300094709C3134709336002E733F4221216BB
:1016C300A37004181818221216B2700D74FFF618BE
:1016D30019F61819F61819F622E7548066F6121649
:1016E3006F700F12167870F014F608F608F608F605
:1016F30080D1121678700CF608F608768008E64456
:101703007F80EC121692700C12168160BFE6548033
:10171300F6E480BB121681700519191980A5E869D2
:10172300700C763F18768018F618F6E8F922E6CDA5
:10173300C0E018ECC0E0E633CD33CDD313F6E719A0
:10174300FCE7191933CC33C3947F400ECD9D50244D
:1017530008E65480F6E418F6800FF4043D145014A0
:1017630008E6447FF6187680E418F618F6D0E0FC15
:10177300D0E0FD22CCD313CCFD18E4C6CBC0E018D7
:10178300E4C6CAC0E00808ED08C633E613F618E459
:1017930033C675F003C3CA97CA09CB97CB199C40CC
:1017A300047D08802EBD000302186A16B6FF0506E5
:1017B30006081618C3CA33CACB33CB33CA27CA09A0
:1017C300CB37CB193CC37D08803E187D0820E75CEE
:1017D300C633C6CA33CACB33CB33DDF1D5F0EB30D6
:1017E300E77BCA97CA09CB974ACB199C406F4B70CA
:1017F30025E620E0218066187D08C3CA97CA09CB75
:1018030097CB199CD3C633C6CA33CACB33CB335019
:10181300C9DDE7D5F0E1D3E4C636C608C636C60847
:10182300C636C608C636C61818188031C3CA97CA42
:1018330009CB97CB199CB34097C633C6CA33CACBDF
:1018430033CB33DD34D5F02EC6A2E0C640C8CA2759
:10185300CA09CB37194A70BECB3CB480B90808E635
:101863003308E633601F181818D0E0FAD0E0FBD035
:10187300E0FCD0E0FD22187D08CA27CA09CB37CB8C
:10188300193CD3808013F618E4B67F11F618B6FF1F
:101893000EF618C60470D20808768080CAF618F6C9
:1018A30018F680C5080808EAC0E0EBC0E086F0E758
:1018B300A4FA180986F0E7A42AFA180986F0E7A41F
:1018C3002AFA180986F0E7A42AFA1986F0E7A4FB96
:1018D300E5F02AFA190886F0E7A42BFBE5F03AFABB
:1018E300190886F0E7A42BFBE5F03AFA18180986E5
:1018F300F0E7A4C5F02BFBE43AFA1908E7C5F0C6F4
:10190300A426F6E5F03BFBE43AFA1886F0E7A4F6E2
:10191300E5F00826F6E43B08F6E43A08F6D0E0FBE7
:10192300D0E0FA22E4CFC0E0E4CEC0E0E4CDC0E0F2
:10193300E4CCC0E075F020E626F608E633F608E6C8
:1019430033F608E633F6181818EC33FCED33FDEEE6
:1019530033FEEF33FFC3EC9709ED9709EE9709EFD9
:1019630097191919400FFFEC97FC09ED97FD09EE44
:1019730097FE191906D5F0BFECF709EDF709EEF755
:1019830009EFF7191919D0E0FCD0E0FDD0E0FED043
:10199300E0FF22181818E4C396F608E496F608E464
:1019A30096F608E496F6226016080808C6C313C61E
:1019B30018C613C618C613C618C613C6D5E0EA223E
:1019C3007009080808226016181818C6C333C60819
:1019D300C633C608C633C608C633C6D5E0EA22E610
:1019E30027F60809E637F60809E637F60809E63761
:1019F300F622E026F608A3E036F608A3E036F6085A
:101A0300A3E036F622E026F008A3E036F008A3E0D0
:101A130036F008A3E036F022C3E697F60809E69706
:101A2300F60809E697F60809E697F622C3E096F06A
:101A330008A3E096F008A3E096F008A3E096F0224E
:101A4300E657F60809E657F60809E657F60809E6E1
:101A530057F622E056F608A3E056F608A3E056F63A
:101A630008A3E056F622E056F008A3E056F008A3D8
:101A7300E056F008A3E056F022E0F608A3E0F608EB
:101A8300A3E0F608A3E0F622E6F008A3E6F008A335
:101A9300E6F008A3E6F022E0FAA3E0FBA3E0FCA350
:101AA300E0FD22EAF0A3EBF0A3ECF0A3EDF022E0DB
:101AB300F8A3E0F9A3E0FAA3E0FB22E8F0A3E9F03E
:101AC300A3EAF0A3EBF022CAC0E0E6F0A308DAFA37
:101AD300D0E0FA22CAC0E0E0A3C582CCC582C583A8
:101AE300CDC583F0A3C582CCC582C583CDC583DABA
:101AF300E6D0E0CA22C3E498F8E499F9121B3980CE
:101B030026C3E49AFAE49BFBE920E7E9121B39E4D4
:101B130098F8E499F922C3E498F8E499F9121B3987
:101B2300E498F8E499F9C3E49AFAE49BFB22EB20E6
:101B3300E7CFE920E7E0B90010BB0008E88AF084AA
:101B4300F8AAF022E4FBC8FA22EB70227B10C83318
:101B5300C8C933C9335007C39AC3DBF280069A500E
:101B6300012ADBEAC833F4C8C933F4C9FA2275F091
:101B730008E4C833C8C933C933C99AC99B5004C9D7
:101B83002AC93BD5F0ECFBC833F4C8E4C9FA226098
:101B93000D08C6A2E713C618C613C6D5E0F3226024
:101BA3000C08C6C313C618C613C6D5E0F4227004C6
:101BB30022600D18C6C333C608C633C6D5E0F41871
:101BC30022251810AF08F518400C15198008F518D0
:101BD30040021519D2AF2200C0D0251810AF08F566
:101BE30018500C05198008F51850020519D2AFD00A
:101BF300D0222518F58210AF08F518400C1519806E
:101C030008F51840021519D2AF851983222518F556
:101C130082E43519F583222518F8E43519F92225CC
:101C230018FAE43519FB222518FCE43519FD22E4E2
:101C3300732518C582C0E0E51934FFC583C0E0E50C
:101C430018C3958224F810AF0885831985821880FC
:101C530008858319858218D2AFCEF0A3E520F0A3BF
:101C63007808E608F0A3DEFAEFF0A3E58124FAF89A
:101C7300E608F0A3E608F0A3E608F0A30808E608E0
:101C8300F0A3E608F0A315811581D0E0FED0E0F8BB
:101C9300158115811581E8C0E0EEC0E0222518C545
:101CA30082C0E0E51934FFC583C0E0E518C395821F
:101CB30024F910AF08858319858218800885831954
:101CC300858218D2AFCEF0A3E520F0A37808E6080A
:101CD300F0A3DEFAEFF0A3E58124FBF8E608F0A316
:101CE300E608F0A30808E608F0A3E608F0A31581C8
:101CF3001581D0E0FED0E0F815811581E8C0E0EE53
:101D0300C0E022851983851882E0A3FEE0A3F520B5
:101D13007808E0A3F608DFFAE0A3FFE0A3C0E0E061
:101D2300A3C0E0E0A3C0E0E0A3C0E0E0A3C0E010F4
:101D3300AF088582188583198008858218858319E1
:101D4300D2AFD083D082020132851983851882E015
:101D5300A3FEE0A3F5207808E0A3F608DFFAE0A3EA
:101D6300FFE0A3C0E0E0A3C0E0E0A3C0E0E0A3C0C5
:101D7300E010AF088582188583198008858218854D
:101D83008319D2AFD083D08222C0D02518C582C098
:101D9300E0E51934FFC583C0E0E518C3958224F359
:101DA30010AF088583198582188008858319858279
:101DB30018D2AFC8F0A3E9F0A3EAF0A3EBF0A3793C
:101DC30008E709F0A3D8FAECF0A3EDF0A3EEF0A333
:101DD300EFF0A3D0E0F0A3D0E0F0A3D0E0F0A3E5D0
:101DE30020F0A3E5F0F0A322851983851882E0C0D3
:101DF300E0A3E0F9A3E0FAA3E0FBA37808E0F60888
:101E0300A3DFFAE0FCA3E0FDA3E0FEA3E0FFA3E071
:101E1300C0E0A3E0C0E0A3E0F5D0A3E0F520A3E099
:101E2300A3F5F010AF088583198582188008858390
:101E330019858218D2AFD082D083D0E0F8D0E032B7
:101E430074048006740280027401C0E0F404121B5F
:101E5300F5D0E0121ACA227404800474028000CC04
:101E6300C0E0EDC0E0E518C39CCCAD1950011D10D6
:101E7300AF068C188D1980068C188D19D2AF121AE3
:101E8300D7D0E0FDD0E0FC22D083D082C5F0E4932C
:101E9300A3C5F0C395F0F5F0E493A3C395F0400513
:101EA300E5F0048001E475F002A42582F582E5F0F3
:101EB3003583F583E493A3C0E0E493C0E022D083A9
:101EC300D082E9C0E0E493A3C386F0C5F095F0F9AE
:101ED30008E493A386F0C5F095F0700BE493A3C3D5
:101EE300994005E9048002A3E475F002A42582F574
:101EF30082E5F03583F583D0E0F9E493A3C0E0E411
:101F030093C0E022D083D082ECC0E0EDC0E0E49344
:101F1300A3FCE493A3FDED4C600D121F53EC24FFCF
:101F2300FCED34FFFD80EFE493A3FCE493A3FDED0C
:101F33004C600D121F92EC24FFFCED34FFFD80EF8B
:101F4300D0E0FDD0E0FCE493A3C0E0E493C0E02242
:101F5300C0E0C3E49396087401939618400FE4938A
:101F630066700808740193661870007019A3A3C300
:101F7300E49396087401939618A3A3400DD0E0D080
:101F8300E0D0E0021F43A3A3A3A3A3A3D0E022C0F6
:101F9300E0C0F088F0E49366700808740193661853
:101FA3007000A8F0A3A3700BD0F0D0E0D0E0D0E095
:0A1FB300021F43A3A3D0F0D0E022E8
:101FC00074F5121CA0EAFEEBFFEE2434F8EF3400A7
:101FD000F988088909EE2435F582EF3400F583E0AD
:101FE000F8EE2437F582EF3400F583E0F50AEC854E
:101FF0000AF0A4FCAAF0850AF0EDA42AFDE82CF86A
:10200000E43DF97A257B00121B39EA8508828509AF
:1020100083F0F8740758F97401B900028004C333DF
:10202000D9FCFAE8131313541FF8EE28F8EF340024
:10203000F9E8245DF582E93400F583E05A6008EEA2
:102040002434F582EF802CEE2434F582EF3400F551
:1020500083E0C0E0EE2436F582EF3400F583E0F54E
:10206000F0D0E084A8F0EE28F8EF3400F9E8243846
:10207000F582E93400F583E0F97F04021D4C74F524
:10208000121CA0EAFEEBFFEE2434F582EF3400F5DB
:1020900083E0C0E0EE2435F582EF3400F583D0E034
:1020A000F08E828F83A3A3A3A3A3A3A3C082C08324
:1020B0008E828F83A3A3A3A3A3E0F8A3E0F9D08328
:1020C000D082E0C398F508A3E099F509EE247FF5E6
:1020D00082EF3400F583E064017069EE2480F582BC
:1020E000EF3400F583E0F8A3E0F98E828F83A3A399
:1020F000A3A3A3A3A3E0FCA3E0FD8E828F83A3A3ED
:10210000A3A3A3E0FAA3E0FBC3EA9CEB9D5010C39A
:10211000EC98ED99402EC3EA98EB995027800EC3B6
:10212000EA98EB994007C3EC98ED9940177CDC7D69
:1021300004EEFAEFFB120C74EE247FF582EF34000C
:10214000F583E4F0EE2434F8EF3400F9E8FCE9FD1F
:10215000EE2435F582EF3400F583E0F8EE2437F510
:1021600082EF3400F583E0F50AE508850AF0A4F56E
:1021700008AAF0850AF0E509A42AF509E82508F877
:10218000E43509F97A257B00121B39EA8C828D83AC
:10219000F0F8740758F97401B900028004C333D908
:1021A000FCFAE8131313541FF8EE28F8EF3400F983
:1021B000E8245DF582E93400F583E05A6008EE24F6
:1021C00034F582EF802CEE2434F582EF3400F58371
:1021D000E0C0E0EE2436F582EF3400F583E0F5F060
:1021E000D0E084A8F0EE28F8EF3400F9E82438F5C0
:1021F00082E93400F583E0F9122DFB022079C082D8
:10220000C083851882851983E0F8A3E0F9C3EA9CAE
:10221000EB9D5010C3EC98ED99401BC3EA98EB99E5
:102220005014800EC3EA98EB994007C3EC98ED99DF
:102230004004790180027900D083D08222EAC39CD5
:10224000FAEB9DFB2274EF121CA09003A2E064083D
:102250006005E06407702A9061C8E060249003D0B4
:10226000E0F4601DE0F875F003A4C8AAF02AF97440
:10227000D228FE740339FF8E828F83A3A3A3E0705C
:1022800003022375906060E0C0E0EE2468F582EF01
:102290003400F583D0E0F0750C45750D0575080028
:1022A000750900E5D914F50AE5D95403F50E601750
:1022B0007403650E605CE50A6010EE2467F582EF3A
:1022C0003400F583E0700302235A900540E0640176
:1022D000602AEE2482F582EF3400F583E060047812
:1022E0000480027800850A08E508C398FA95E0FBA7
:1022F000120B248A088B09EA45097005120E7880B2
:1023000074EE2482F582EF3400F583E070048A0CC9
:102310008B0DE50A6012850C82850D83F50BE5D9DE
:10232000F0A3150BE50B70F6EE2482F582EF340076
:10233000F583E0604474FC250AF50A780C121E4708
:10234000AC0AA90EEEFAEFFB120D107402121BDAA2
:10235000E97026AA08AB091212B6793D8E828F83E6
:10236000A3A3A3A3E0FA7B001209F8EEFAEFFB1295
:102370000C8C120D22790080747403650E605685F2
:102380000A107511007810121E47AC0CAD0DAA088A
:10239000AB09120CEC7402121BDAEE2468F582EF22
:1023A0003400F583E064807004747F8001E0F50CF4
:1023B000780C121E4BE50EF50C780C121E4BA90A78
:1023C000AC08AD099003D0E0FA7B001209BC74029E
:1023D000121BDA80139003A2E06408600BAC0CAD12
:1023E0000DEEFAEFFB120D7C120E8479017F0A02CA
:1023F0001D4C74F5121CA074FC121BC4EAFEEBFF0A
:102400008908A2AFE433F509C2AF806AEE2463F80D
:10241000EF3400F97A007B00A2AFE433F50AC2AFD3
:1024200088828983E0FCA3E0FDEC4D603A888289D4
:1024300083E0FAA3E0FB8A828B83E0FCA3E0FD88C3
:10244000828983ECF0A3EDF08A828B83E4F0A3F021
:1024500088828983E0FCA3E0FDEC4D700A888289C4
:1024600083A3A3E4F0A3F0E50AA2E092AF1212B6B0
:102470009004E3E004F0EE2463F582EF3400F5838A
:10248000E0F8A3E0F9E849603DEE2463F582EF341B
:1024900000F583E02402FAA3E03400FBEA2402F50D
:1024A0000AEB3400F50B780A121E478A828B83E010
:1024B000FCA3E0F9EEFAEFFB120CB07402121BDA87
:1024C000E9700302240C9004E3E060639004E4E00C
:1024D000F89004E3E0C398500C74026508705090C3
:1024E00004E5E0604A8E828F83A3A3A3A3E085184E
:1024F00082851983F0A3E4F09004E3E0F8740212FB
:102500001C10E8F0A3E4F09004E3E0F89004E2E0AB
:1025100028F07402121C10AC82AD838518828519D4
:1025200083AA82AB8379011209C89004E3E4F0E541
:1025300009A2E092AF7404121BDA022079000000B5
:102540008521878522C622C0E0C0D0E8C0E0E9C06E
:10255000E0EAC0E0EBC0E0ECC0E0EDC0E0EEC0E0DF
:10256000C008C009C00AC00BC082C083C0F0A2AFBF
:10257000E433FEC2AF759B00906182E0A2E050128E
:10258000E591A2E0500C7591FE7401652170031273
:102590002245E0A2E55051E591A2E5504B7591DF4F
:1025A0009003A2E064076005E0640870237401658D
:1025B00021703579019003D0E0FA75F003A4CAA820
:1025C000F028FB74D22AFA74033BFB1223F2801822
:1025D000E0640D70139003C4E004F064287002E41A
:1025E000F07A00E0F9120E8A906182E0A2E64003E0
:1025F00002268EE591A2E6400302268E7591BF90D9
:1026000003A2E064057008120DB2120DBE80031221
:102610000DB8752100120E18E99003A3F07900128D
:102620000E0C120BDE7A017B009003A1E0F912126E
:1026300086907803E064427055900544E014F07091
:102640004DC2AF12264600782AD0E0F618D0E0F648
:10265000E59F540770057509FF800375097FC4C0A5
:10266000E07829E6F50808E65509F509740B7808BD
:10267000121BA2D0E02508F8906270E0A2E740F8B3
:10268000E8C333906272F0906270E0D2E0F0906143
:1026900081E0A2E35009E5E9A2E3500375E9F7A35D
:1026A000E0A2E75009E591A2E7500375917FEEA201
:1026B000E092AFD0F0D083D082D00BD00AD009D036
:1026C00008D0E0FED0E0FDD0E0FCD0E0FBD0E0FAA6
:1026D000D0E0F9D0E0F8D0D0D0E032C0E0C0D0C037
:1026E00082C083906183E0A2E05009E5BFA2E05080
:1026F0000375BFFEE0A2E15009E5BFA2E1500375FA
:10270000BFFDE0A2E25009E5BFA2E2500375BFFBA6
:10271000E0A2E35009E5BFA2E3500375BFF7E0A2D2
:10272000E45009E5BFA2E4500375BFEFE0A2E55015
:1027300009E5BFA2E5500375BFDFE0A2E65009E559
:10274000BFA2E6500375BFBFD083D0828088C0E0AF
:10275000C0D0E8C0E0E9C0E0EAC0E0EBC0E0ECC017
:10276000E0EDC0E0C0F0E5A7A2E6500FE5A1A2E6CB
:10277000500953A7BF75A1BF1227B3E5A7A2E55023
:102780000CE5A1A2E5500653A7DF75A1DFE5A7A2DE
:10279000E15009E5A1A2E1500375A1FDE5A7A2E280
:1027A000500CE5A1A2E2500653A7FB75A1FBD0F0A7
:1027B0000226C474F8121CA07521019003A2E064E3
:1027C000067015120D408A828B83A3A3A3A3A3A333
:1027D000E0FAA3E0FB120DA0A2AFE433FED2AF906B
:1027E00003A8E0640170187A207B009003A1E0F94F
:1027F00012139A7A207B009003A1E0F912128C90B8
:102800006182E0D2E6F0900541E0602185C6228039
:10281000169003A7E064017008E5C654F84405F576
:10282000C653BEFC1225407401652160E4EEA2E0AF
:1028300092AF7F01021D4C008E238F248582288554
:102840008327851882851983E0CEA3E0CF8528826F
:10285000852783EBC9EAC8EDCBECCA75F010C3E855
:1028600033C8E933C9EA33CAEB33CBC3EA9EF52652
:10287000EB9FF525B35004AB25AA26EC33CCED3302
:10288000CDD5F0DAAE23AF242274E9121CA074F87F
:10289000121BC4851882851983ECF0A3EDF08A0819
:1028A0008B099003A2E024F7C39405500675080134
:1028B000022A20120D408A0A8B0BAE0AAF0BEE4F94
:1028C0007003022A1DAC08AD097402121C10AA8202
:1028D000AB83120DD08E828F83A3A3750CFF750D71
:1028E000FF750EFF750F00780C121A567402121C39
:1028F000107510FF7511FF7512FF75130078101217
:102900001A56780C7910121529502A780C79101261
:102910001A1B7508017509C8750A00750B0078083F
:10292000790C1215295052850C08850D09850E0A5F
:10293000850F0B80507514017515C8751600751735
:102940000085100885110985120A85130B7808790E
:102950000C121A1B78147908121529401C750800EE
:10296000750900750A00750B0178087910121A1B99
:102970007808790C1219E2800C7508017509007548
:102980000A00750B00740978081219C3750C19F543
:102990000DF50EF50F7808790C1219278E828F83AA
:1029A000A3A3A3A3A3A3E0F8A3E0F97AD07B031227
:1029B0001B39880C890DE4F50EF50F7808790C1297
:1029C00019E27406121C10E0F8A3E0F97AD07B0338
:1029D000121B39E8FA8A0CE4F50D7808790C121507
:1029E0002950077808790C121A1B9003A2E064089A
:1029F000600AE064066005E06405702D750C0D78D2
:102A00000C79081215294021750CF4750DFF750E0F
:102A1000FF750FFF7808790C1219E2800C75080019
:102A2000750900750A00750B00851882851983E009
:102A3000F8A3E0F58388827808121A8B7408121BB9
:102A4000DA7F10021D4C74F7121CA0120DE29005E3
:102A50003FE064017010906245E4F0A3F053F4F39A
:102A600043FE0C5390F3120D8EE5C654804449F595
:102A7000C6E59E547F644970F8906185740FF090AC
:102A8000053DE0F47002A3E0604E90053EE0600872
:102A900014601B14602E80407508017509009005B4
:102AA0003DE07808121BB1E508F45280802A7508D1
:102AB0000175090090053DE07808121BB1E508F4A6
:102AC0005290801475080175090090053DE0780862
:102AD000121BB1E508F452A079007F02021D4C746C
:102AE000F7121CA0E9FEEAFF74016E700C7A807B7D
:102AF000009003A1E0F9121286902F78E493F4601D
:102B000008E493F9120BD2800953C680E59E547FE6
:102B100070FA120D9490053FE064017003120BF6F9
:102B200090053DE0F47002A3E0604B90053EE0604C
:102B30000814601A14602C803D7508017509009016
:102B4000053DE07808121BB1E50842808028750831
:102B50000175090090053DE07808121BB1E50842B7
:102B600090801375080175090090053DE078081202
:102B70001BB1E50842A0120DE2120D408A088B0934
:102B8000A808A909E8496015E5E170FCE82414F5F6
:102B900082E93400F583E0F46003E0F5E174016F4D
:102BA000700A7A019003A1E0F912130A022ADA747A
:102BB000ED121CA08A088B098C0A8D0B7413121C51
:102BC00010780C121A7C7808790C121529751001EE
:102BD0007511C875120075130050127808790C121F
:102BE0001A1B7810790812152950168010780C7964
:102BF00008121A1B7810790C1215294004790180EB
:102C00000279007F0C021D4C74ED121CA08A088B07
:102C1000098C0A8D0B7413121C10780C121A7C7814
:102C20000C790812152940117808790C121A1BAA80
:102C300008AB09AC0AAD0B80227510007511007548
:102C400012007513017810790C121A1B781079088C
:102C50001219E2AA10AB11AC12AD1380A68A828BB6
:102C6000837508FF7509FF750AFF750B0078081258
:102C70001A697F04021D4C74F5121CA08C828D838E
:102C80007808121A7C8A828B837808121A2FEA2419
:102C900004F8EB3400F98C828D83A3A3A3A3E0FC9A
:102CA000A3E0FD88828983C3E09CF0A3E09DF088C7
:102CB000828983C3E09420A3E0944E40268A828BCD
:102CC000837508FF7509FF750AFF750BFF780812F9
:102CD0001A088A828B83A3A3A3A3E02420F0A3E095
:102CE000344EF0022C5D74F5121CA0E9FE9004F73E
:102CF000E0FAA3E0FBEEC333F8E433F9743E28F5C1
:102D000082748239F583E02AF508A3E03BF509785F
:102D100008121E477A407B427C0F7D0012283874CF
:102D200002121BDA8A088B098C0A8D0B7410780842
:102D30001219AAAA08AB097F04021D4C74F1121CD7
:102D4000A08A0C8B0D8C0E8D0F740F121C10E0FAE4
:102D5000A3E0FB7411121C10E0F508A3E0F509785C
:102D600008121E47EA2401F508EB3400F509E4F5E2
:102D70000AF50B780C79081218A775087175090205
:102D8000780C79081218A7AA0CAB0DAC0EAD0F1277
:102D900028387402121BDA8B09EA450960047A01AB
:102DA00080027A00EC2AFCED3400FD7413121C1032
:102DB000E0F8A3E0F9E8FEE9FFECF8EDF97A717BC1
:102DC00002121B39880889098E828F837808121AAB
:102DD0008BECF8EDF97A717B02121B398A088B09AA
:102DE00074057808121BB18E828F83A3A3A3A3E579
:102DF00008F0A3E509F07F08021D4CC082C083E9FA
:102E0000906000F0D083D08222C0E074F2121D8C5A
:102E1000A2AFE433FED2AFC2C0E5D1A2E450065364
:102E2000D1EF121202751A00EEA2E092AF7F0102FA
:102E30001DEBC0E0C0D0E8C0E0E9C0E0A9A8D2AF77
:102E4000C2C7751A00E9A2E7E433F8E9A2E792AF36
:102E5000D0E0F9D0E0F8D0D0D0E032C0E074F21287
:102E60001D8CA2AFE433FED2AF758900C2C5122E0D
:102E7000E112130A9009B3E0F8A3E0687002D2856A
:102E8000EEA2E092AF7F01021DEBC0E074F2121DD2
:102E90008CA2AFE433FED2AF9009B3E0F8A3E068B0
:102EA0007008539AFBA374018022C2E99009B3E031
:102EB000F8740128F0743328F582E43409F583E0CE
:102EC000F5C19009B3E0C394804002E4F0122EE112
:102ED00012130A9009B3E0F8A3E0687002D285806B
:102EE0009F90082F7401F0751A00FA90082BE0F9F2
:102EF00022C2AF020000220020202020202020201B
:102F00002028282828282020202020202020202099
:102F100020202020202020208810101010101010B9
:102F20001010101010101010040404040404040401
:102F30000404101010101010104141414141410192
:102F40000101010101010101010101010101010171
:102F50000101011010101010104242424242420280
:102F60000202020202020202020202020202020241
:102F70000202021010101020FFFFFFFFFFFFFFFFF3
:102F8000C082C083E9900B50F0D083D0820201321E
:102F900074F7121C34EAFEEBFF54806005EF648086
:102FA0008035EEA2E05008121412EE64018026541F
:102FB000026008121418EE6402801AEE5404600ACB
:102FC000C2AF75C9AB75C95B80FEEE5408600B12C9
:102FD0001424EE6408FAEFFB800CEE541060031228
:102FE000142A7A007B0002349C74F0121C348A0884
:102FF0008B09890A750B00750E8C750F84750C038F
:10300000750D00780C121E477CFC7D8412124474EE
:1030100002121BDAE9701B750C04780C121E47AC07
:103020000EAD0FAA08AB091212447402121BDAE9A2
:10303000602B750C04780C121E47AC0EAD0FAA085D
:10304000AB091212447402121BDAE96015AC0AE5EE
:10305000082404FAE43509FB790112140C79000202
:10306000426AE5082403FEE43509FF8007A3AE8227
:10307000AF83050B8E828F83E0F8743D686006E8AD
:1030800070EB743DF0A80BC3E498F895E0F9EE28D6
:10309000FEEF39FFEE2405F50EE43FF50F75080449
:1030A0007509007808121E477CAA7D84EEFAEFFBB2
:1030B0001212447402121BDAE9600FAC0AAA0EABBA
:1030C0000F790212140C79028095EE2406F508E4BB
:1030D0003FF509780C121E477CAF7D84EEFAEFFBBA
:1030E0001212447402121BDAE96010AC0AAA08AB8F
:1030F00009790312140C790302305F750C03780C04
:10310000121E477CE07D84EEFAEFFB12124474023B
:10311000121BDAE9600D1233D3790412140C79040E
:1031200002305F780C121E477CD87D84EEFAEFFBEC
:103130001212447402121BDAE9600D1233D37905BE
:1031400012140C790502305F750C05780C121E47BD
:103150007C0C7D84EEFAEFFB1212447402121BDA2F
:10316000E96010AC0AAA08AB09790612140C7906BA
:1031700002305F750C04780C121E477CC37D84EE10
:10318000FAEFFB1212447402121BDAE96010AC0A67
:10319000AA0EAB0F790112140C790102305F750C85
:1031A00005780C121E477C667D84EEFAEFFB121246
:1031B000447402121BDAE96010AC0AAA08AB097960
:1031C0000712140C790702305F750C04780C121E7C
:1031D000477CB47D84EEFAEFFB1212447402121B9A
:1031E000DAE96010AC0AAA0EAB0F790812140C7958
:1031F0000802305F750C05780C121E477C187D8420
:10320000EEFAEFFB1212447402121BDAE96010AC02
:103210000AAA08AB09790912140C790902305F7502
:103220000C04780C121E477CA57D84EEFAEFFB128D
:1032300012447402121BDAE96010AC0AAA0EAB0F3A
:10324000790A12140C790A02305F750C05780C1299
:103250001E477C247D84EEFAEFFB121244740212A6
:103260001BDAE96010AC0AAA08AB09790B12140C3E
:10327000790B02305F750C04780C121E477CA07D20
:1032800084EEFAEFFB1212447402121BDAE96010AA
:10329000AC0AAA0EAB0F790C12140C790C02305F39
:1032A000750C03780C121E477CEC7D84EEFAEFFB64
:1032B0001212447402121BDAE9600D1233D3790D35
:1032C00012140C790D02305F750C07780C121E4732
:1032D0007CAE7D83EEFAEFFB1212447402121BDA0D
:1032E000E96013AC0AEE2408FAE43FFB790E1214ED
:1032F0000C790E02305F750C05780C121E477C3C71
:103300007D84EEFAEFFB1212447402121BDAE960BC
:1033100010AC0AAA08AB09790F12140C790F02300D
:103320005F750C04780C121E477C917D84EEFAEFD9
:10333000FB1212447402121BDAE96010AC0AAA0EE6
:10334000AB0F791012140C791002305F750C0578F0
:103350000C121E477C487D84EEFAEFFB1212447477
:1033600002121BDAE96010AC0AAA08AB0979111243
:10337000140C791102305F780C121E477C4E7D844C
:10338000EEFAEFFB1212447402121BDAE96010AC81
:103390000AAA08AB09791212140C791202305F756F
:1033A00008067509007808121E477CD57D83EEFA61
:1033B000EFFB1212447402121BDAE9700302305D53
:1033C000AC0AEE2407FAE43FFB791312140C7913CC
:1033D00002305FAC0AEE2404FAE43FFB2274F712D9
:1033E0001C34E9FFECFEEF121E8B011297343734C8
:1033F00014341B342234293430343E3445344C34B4
:1034000053345A34613468346F3476347D348434C0
:103410008B349234EEF9121430807CEEF9121436AB
:103420008075EEF912143C806EEEF912144280673A
:10343000EEF91214488060EEF912144E8059EEF93C
:103440001214548052EEF912145A804BEEF91214F1
:10345000608044EEF9121466803DEEF912146C801F
:1034600036EEF9121472802FEEF91214788028EEDD
:10347000F912147E8021EEF9121484801AEEF912EA
:10348000148A8013EEF9121490800CEEF91214963F
:103490008005EEF912149C8003121BDA7F01021DD5
:1034A0000674F6121C3474F9121BC49083CEAC1847
:1034B000AD197407121AD7AC18AD197A06798212B1
:1034C000136A851882851983E070030235B3750885
:1034D000047509007808121E477C827D84740212EC
:1034E0001C221212447402121BDAE96006900B725D
:1034F0007406F07808121E477C7D7D847402121CCD
:10350000221212447402121BDAE96005900B72E475
:10351000F07508057808121E477C427D84740212FB
:103520001C221212447402121BDAE96006900B721C
:103530007401F07808121E477C727D847402121C9C
:10354000221212447402121BDAE96006900B7274A4
:1035500002F07808121E477C6C7D847402121C22D3
:103560001212447402121BDAE96006900B727403A3
:10357000F07508067808121E477CFF7D83740212DE
:103580001C221212447402121BDAE96006900B72BC
:103590007404F07808121E477CDC7D837402121CD0
:1035A000221212447402121BDAE9600C900B72743E
:1035B000058004900B72E4F0900B72E0F97AF47BD2
:1035C000131213EE0251DC74F7121C3474E6121B52
:1035D000C47E0090806AAC18AD19741A121AD7AC68
:1035E00018AD19900B52E0FA798112136A8518828E
:1035F000851983E0703B7CB77D0D791E7A087B03CB
:103600001213B2E9900B73F07CDC7D0D7A15790012
:10361000120782900B73E0F9741A023499EEF88560
:1036200018828519831236FDC0E01236F2D0E0F020
:103630000E900B52E0F8EEC39840E21237021213DC
:10364000B2E9900B731252C67A1579001207829074
:103650000B52E4F080BD74F7121C3474E5121BC4E5
:103660007E0090809E7401121C2A741A121AD7854B
:1036700018828519831252C67A01798512136A74E9
:1036800001121C2A851882851983E0FA79811213A8
:103690006A7401121C10E0703A7CB77D0D791E7AB5
:1036A000087B031213B2E9900B74F07CDC7D0D7A79
:1036B000157900120782900B74E0F9741B0234999B
:1036C000EEF87401121C101236FDC0E01236F2D072
:1036D000E0F00E851882851983E0F8EEC39840E08B
:1036E0001237021213B2E9900B74F07401121C2A03
:1036F00080BD745528F582E4340BF5832212400016
:10370000E02274012E900B53F0A37409F07C537DDA
:103710000B74022EF97A087B032274F0121C3474A5
:10372000F3121BC49084787404121C2A7405121AB4
:10373000D7740B121C107410F0A3E4F07409121C5F
:10374000107410F0A3E4F07404121C2A7A04798433
:1037500012136A7404121C10E070030237E2F87549
:10376000F0E8A4C8AAF075F003A42AF97405121CA5
:1037700010E075F064A4FAABF0E82AFAE93BFB74B8
:1037800006121C101238FD7407121C1012390C346A
:103790002FF509E4F50AF50B780812158390852CAE
:1037A000780C121A7C7808790C1216C17808121558
:1037B000E0851882851983E508F0A3E509F08518EE
:1037C00082851983E0F8A3E0F97402121C10E8F076
:1037D000A3E91252C679027A117B031213B2740262
:1037E0008010740B121C2A79027A117B031213B217
:1037F0007409121C2A79027A127B031213B279001F
:10380000740D02426774F0121C3474FA121BC490D7
:103810008430AC18AD197406121AD7AC18AD197AE9
:1038200005798312136A851882851983E070030273
:1038300038CAF875F010A4C8AAF075F027A42AF9C0
:103840007401121C10E0FA75F0E8A4CAACF075F02F
:1038500003A42CFBE82AFAE93BFB7402121C10E0DB
:1038600075F064A4F8A9F0EA28FAEB39FB740312A6
:103870001C101238FD7404121C1012390C34DCF5C3
:1038800009E4F50AF50B7808121583908528780C61
:10389000121A7C7808790C1216C178081215E0AE5D
:1038A00008AF09EEFCEFFD7A067B00120608EEFC7D
:1038B000EFFD7A077B00120608EEFCEFFD7A087B2D
:1038C00000120608EEFCEFFD80257CA07D007A0644
:1038D0007B001206087CA07D007A077B0012060898
:1038E0007CA07D007A087B001206087CA07D007A0F
:1038F000097B0012060879007406024267E075F041
:103900000AA4F8A9F0EA28FAEB39FB22E0F8EA2841
:10391000F8E43BF9E824B0F508E92274F6121C3407
:10392000E97A9B7B84603C7508047509007808126D
:103930001E477C9B7D847A857B0A121232740212A8
:103940001BDA79047A327B001214C6124AF9121E6D
:10395000477C007D007A857B0A1215087402121BD1
:10396000DA80097C047D0079001211F00251E174C3
:10397000F2121C3474F9121BC489089083E3AC184A
:10398000AD197407121AD7AC18AD197A06798212DC
:10399000136A851882851983E064397012E4780708
:1039A000F0A3D8FCAC18AD197A04798212136A8599
:1039B0001882851983E064347012E47807F0A3D884
:1039C000FCAC18AD197A04798212136A85188285C5
:1039D0001983E07003023AA67CC67D83E508750A68
:1039E00007750B00780A605B121E477A857B0A1206
:1039F00012327402121BDAAA18AB1912122C8A0A9C
:103A00008B0B780A121E477402121C2A7A8C7B0ACE
:103A10001212327402121BDAAA18AB1912122C7588
:103A20000A02750B00780A121E47123B001212326E
:103A30007402121BDAAA18AB1912122CEA2409F923
:103A4000023ACB121E477A857B0A12123274021296
:103A50001BDAAA18AB1912122C8A0A8B0B780A12DD
:103A60001E477402121C2A7A8C7B0A1212327402CC
:103A7000121BDAAA18AB1912122C750A02750B0068
:103A8000780A121E47123B001212327402121BDA1D
:103A9000AA18AB1912122C8B0BA90BEA240912409D
:103AA00012121208803A7A6E7B82E5086029750A44
:103AB0000F750B00780A121E477C6E7D827A857B1B
:103AC0000A1212327402121BDA790F7A327B001258
:103AD00014C61246E980097C0F7D0079001211F0AE
:103AE000750AC8750B00780A121E477C007D007AA3
:103AF000857B0A1215087402121BDA790002401B3A
:103B00007C3B7D85748C2AFA740A3BFB2274F2128A
:103B10001C3474F9121BC4EAFEEBFF890812122C44
:103B2000EA900B51F09083F8AC18AD197407121A93
:103B3000D7AC18AD197A06798212136A900B4EE44D
:103B4000F0750A04F50B780A121E47EEFCEFFD7AB9
:103B5000827B841212447402121BDAE96003023B76
:103B6000FD780A121E47EEFCEFFD7A7D7B8412126F
:103B7000447402121BDAE96003023BFD750A057802
:103B80000A121E47EEFCEFFD7A427B841212447447
:103B900002121BDAE97066780A121E47EEFCEFFD8E
:103BA0007A727B841212447402121BDAE9704E7826
:103BB0000A121E47EEFCEFFD7A6C7B8412124474ED
:103BC00002121BDAE97036750A06780A121E47EEF1
:103BD000FCEFFD7AFF7B831212447402121BDAE9B8
:103BE000701B780A121E47EEFCEFFD7ADC7B831215
:103BF00012447402121BDAE97003023D2BEEFAEF55
:103C0000FB12122C8A0A8B0B780A121E47EEFCEF6D
:103C1000FD7402121C221212447402121BDAE970A3
:103C200010EEFAEFFB12122CEEFCEFFD798212136C
:103C300064750A3B750B857CC67D83E508750C07AA
:103C4000750D00780C6067121E477A857B0A121288
:103C5000327402121BDAEEFAEFFB12122C8A0C8B72
:103C60000D780C121E47EEFCEFFD7A8C7B0A1212C7
:103C7000327402121BDAEEFAEFFB12122C750C02F0
:103C8000750D00780C121E47AC0AAD0B123B0412E6
:103C900012327402121BDAEEFAEFFB12122CEA2433
:103CA00009F97A327B001214C61246E98064121EAA
:103CB000477A857B0A1212327402121BDAEEFAEF8F
:103CC000FB12122C8A0C8B0D780C121E47EEFCEFA7
:103CD000FD7A8C7B0A1212327402121BDAEEFAEFB2
:103CE000FB12122C750C02750D00780C121E47ACDD
:103CF0000AAD0B123B041212327402121BDAEEFAF6
:103D0000EFFB12122C8B0BA90BEA240912401212A2
:103D1000120890851C121E5A7A017B00900B50E00D
:103D2000F912138E7404121BDA80377AFF7B82E556
:103D3000086026750A0C780A121E477CFF7D827A7D
:103D4000857B0A1212327402121BDA790C7A327BEA
:103D5000001214C61246E980097C0C7D007900121D
:103D600011F0750AC8750B00780A121E477C007D99
:103D7000007A857B0A1215087402121BDA02401BB6
:103D800074F6121C34E9FE900B4EE4F07A04FB90BA
:103D90000B50E0F91212867A7C7B83EE602975085D
:103DA000087509007808121E477C7C7D837A857B24
:103DB0000A1212327402121BDA79087A327B00126C
:103DC00014C61246E980097C087D0079001211F0C2
:103DD0007508C87509007808121E477C007D007AB6
:103DE000857B0A12150874020251DE74F2121C342B
:103DF00074CB121BC48908908050741B121C2A7447
:103E00001A121AD79080B804121C2A741A121AD7E0
:103E1000750900AC18AD197A01798512136A741B03
:103E2000121C2A851882851983E0FA798112136A97
:103E30007C737D83741B121C10E07070E508750A9A
:103E400008750B00780A7003023F82121E477A85BC
:103E50007B0A1212327402121BDA7ADC7B0D121208
:103E60002C8A0A8B0B780A121E477CDC7D0D7A8D1A
:103E70007B0A1212327402121BDA7ADC7B0D1212E8
:103E80002C750A02750B00780A121E471248FB12A5
:103E900012327402121BDA7ADC7B0D807BC0E07474
:103EA00001121C10124000D0E0F00509A809741B93
:103EB000121C101236FD70E5E508750A08750B0036
:103EC000780A6068121E477A857B0A1212327402E1
:103ED000121BDA7401121C2212122C8A0A8B0B7824
:103EE0000A121E477403121C2A7A8D7B0A121232A0
:103EF0007402121BDA7401121C2212122C750A02AF
:103F0000750B00780A121E471248FB121232740217
:103F1000121BDA7401121C2212122CEA240AF97AFA
:103F2000327B001214C61246E9023FDF121E477AA6
:103F3000857B0A1212327402121BDA7401121C22DF
:103F400012122C8A0A8B0B780A121E477403121C59
:103F50002A7A8D7B0A1212327402121BDA74011251
:103F60001C2212122C750A02750B00780A121E47C9
:103F70001248FB1212327402121BDA7401121C2254
:103F80008050121E477A857B0A1212327402121B6D
:103F9000DA7ADC7B0D12122C8A0A8B0B780A121E3D
:103FA000477CDC7D0D7A8D7B0A1212327402121B63
:103FB000DA7ADC7B0D12122C750A02750B00780A76
:103FC000121E471248FB1212327402121BDA7ADCFC
:103FD0007B0D12122C8B0BA90B12400F12120875BD
:103FE0000AC8750B00780A121E477C007D007A858E
:103FF0007B0A1215087402121BDA79007435801DD1
:10400000E58228F582E43583F583228B09A909EA44
:10401000240AFCE439FD7A857B0A227407121BDA34
:104020007F06021D0674F0121C3474FF121BC412AA
:10403000492212122CEA900B52F07C527D0B7A012D
:104040007985121364900B4EE4F0900B52E0C39408
:104050001B40397AD57B82851882851983E06020E0
:1040600075080D7509007808121E477CD57D827A87
:10407000857B0A1212327402121BDA790D02418A10
:104080007C0D7D0079001211F002424AE0700302BB
:10409000424AEEFCEFFDE0FA798112136490851C30
:1040A000121E5A7A027B00900B50E0F912138E74A4
:1040B00004121BDA750E73750F8375083B7509853D
:1040C000750AB9750B847C8C7D848518828519836B
:1040D000E0750C04750D00780C7003024197121EF8
:1040E00047EE24FCFAEF34FFFB1212447402121B59
:1040F000DAE96046780C121E47AC0AAD0B7A857B74
:104100000A1212327402121BDA12426F121E47EEAA
:10411000FCEFFD7A897B0A1212327402121BDA75E7
:104120000A02780A121E4712428D121232740212CB
:104130001BDA900B52E02406804F750A08750B00BD
:10414000780A121E47AC0EAD0F7A857B0A12123226
:104150007402121BDA900B52E0F50A780A121E471D
:10416000EEFCEFFD7A8D7B0A1212327402121BDA1A
:10417000750A02780A121E4712427B12123274022A
:10418000121BDA900B52E0240AF97A327B001214E7
:10419000C61246E902424A121E477A857B0A12126B
:1041A000447402121BDAE96046780C121E47AC0A0E
:1041B000AD0B7A857B0A1212327402121BDA12429C
:1041C0006F121E47EEFCEFFD7A897B0A12123274E1
:1041D00002121BDA750A02780A121E4712428D1269
:1041E00012327402121BDA900B52E02406804F75D3
:1041F0000A08750B00780A121E47AC0EAD0F7A85BF
:104200007B0A1212327402121BDA900B52E0F50A8A
:10421000780A121E47EEFCEFFD7A8D7B0A121232ED
:104220007402121BDA750A02780A121E4712427BC8
:104230001212327402121BDA900B52E0240AFCE4D0
:104240003400FD7A857B0A1212087508C8750900CA
:104250007808121E477C007D007A857B0A121508BB
:104260007402121BDA7401121BDA7F08021D069019
:104270000B52E0F50A750B00780A22AC08AD0990E4
:104280000B52E0F8748D28FAE4340AFB22AC08AD36
:1042900009900B52E0F8748928FAE4340AFB22747E
:1042A000F4121C3474FA121BC48908908412AC18DE
:1042B000AD197406121AD7AC18AD197A05798312A4
:1042C000136A851882851983E070030243657C8E2A
:1042D0007D83E508750A08750B00780A603A121E9E
:1042E000477A857B0A1212327402121BDA750A05AC
:1042F000780A121E477402121C2A7A8D7B0A121247
:10430000327402121BDA750A02780A121E477C3BCD
:104310007D857A927B0A8068121E477A857B0A1215
:1043200012327402121BDA750A05780A121E4774DB
:1043300002121C2A7A8D7B0A1212327402121BDAC4
:10434000750A02780A121E477C3B7D857A927B0AA9
:104350001212327402121BDA7C0F7D007A857B0AFE
:10436000121208803A7AFE7B81E5086029750A0FEF
:10437000750B00780A121E477CFE7D817A857B0AC8
:104380001212327402121BDA790F7A327B00121485
:10439000C61246E980097C0F7D0079001211F07584
:1043A0000AC8750B00780A121E477C007D007A85CA
:1043B0007B0A1215087402121BDA7406024FC774C6
:1043C000F0121C3474F7121BC412492290842A7410
:1043D00003121C2A7406121AD7900B4EF004121CFA
:1043E0001074E3F0A37482F012122C8A087405652D
:1043F000084B6003024564EEFAEFFB121502124807
:10440000EC1215689085287808121A7C780C7908C7
:104410001216C1780C1215E0E50C24E0F8E50D3415
:10442000FFF9C3E894E1E9943F400302453C74037B
:10443000121C2A7A05798312136A7508057509001A
:104440007808121E477405121C2AEEFAEFFB1212AE
:10445000447402121BDAE97017EEFCEFFD7A05795D
:10446000831213647A107B00900B50E0F9121286CD
:1044700075083B7509857C8E7D83124908605E1244
:104480001E477A857B0A1212327402121BDAEEFA88
:10449000EFFB12122C8A0A8B0B780A121E47EEFCD5
:1044A000EFFD7A8D7B0A1212327402121BDAEEFAD9
:1044B000EFFB12122C750A02750B00780A121E47C8
:1044C000AC08AD091248FF1212327402121BDAEE68
:1044D000FAEFFB12122CEA240AF902458A121E474F
:1044E0007A857B0A1212327402121BDAEEFAEFFBA3
:1044F00012122C8A0A8B0B780A121E47EEFCEFFD73
:104500007A8D7B0A1212327402121BDAEEFAEFFB7A
:1045100012122C750A02750B00780A121E47AC089D
:10452000AD091248FF1212327402121BDAEEFAEFD2
:10453000FB12122C12400B121208806D8518828516
:104540001983E0605175080D7509007808121E473F
:104550007403121C101249181212327402121BDA60
:10456000790D8026851882851983E0602975080DEC
:104570007509007808121E477403121C101249189E
:104580001212327402121BDA790C7A327B00121486
:10459000C61246E980137C0D7D007401121C10E0E8
:1045A000FAA3E0FB79001211F07508C875090078CC
:1045B00008121E477C007D007A857B0A121508745C
:1045C00002121BDA740902426774F4121C3474FB81
:1045D000121BC48908908496AC18AD197405121A80
:1045E000D7AC18AD197A04798412136A85188285BC
:1045F0001983E0700302468F7C977D83E508750A76
:1046000008750B00780A603A121E477A857B0A12F9
:1046100012327402121BDA750A04780A121E4774E9
:1046200002121C2A7A8D7B0A1212327402121BDAD1
:10463000750A02780A121E477C3B7D857A917B0AB7
:104640008068121E477A857B0A1212327402121B8E
:10465000DA750A04780A121E477402121C2A7A8D2F
:104660007B0A1212327402121BDA750A02780A12DD
:104670001E477C3B7D857A917B0A121232740212AE
:104680001BDA7C0E7D007A857B0A121208803A7A4A
:104690008D7B82E5086029750A0E750B00780A1279
:1046A0001E477C8D7D827A857B0A1212327402123B
:1046B0001BDA790E7A327B001214C61246E98009A1
:1046C0007C0E7D0079001211F0750AC8750B007818
:1046D0000A121E477C007D007A857B0A1215087439
:1046E00002121BDA7405024FC71246ED22900D85A7
:1046F0007485F0A3740AF0900B4EE4F02274F0126B
:104700001C3474F8121BC41249229084877403125B
:104710001C2A7405121AD7900B4EF004121C107448
:10472000C7F0A37482F012122C8A08740465084B37
:1047300060030248A2EEFAEFFB1215021248EC12D7
:10474000156890852C7808121A7C780C7908121656
:10475000C1780C1215E0E50C24FAF8E50D34FFF9E8
:10476000C3E8947BE9940C400302487A7403121C5A
:104770002A7A04798412136A750804750900780886
:10478000121E477405121C2AEEFAEFFB1212447433
:1047900002121BDAE97017EEFCEFFD7A047984123D
:1047A00013647A087B00900B50E0F91212867508AA
:1047B0003B7509857C977D83124908605E121E4710
:1047C0007A857B0A1212327402121BDAEEFAEFFBC0
:1047D00012122C8A0A8B0B780A121E47EEFCEFFD90
:1047E0007A8D7B0A1212327402121BDAEEFAEFFB98
:1047F00012122C750A02750B00780A121E47AC08BB
:10480000AD091248FF1212327402121BDAEEFAEFEF
:10481000FB12122CEA240AF90248C8121E477A85B4
:104820007B0A1212327402121BDAEEFAEFFB12123A
:104830002C8A0A8B0B780A121E47EEFCEFFD7A8D4C
:104840007B0A1212327402121BDAEEFAEFFB12121A
:104850002C750A02750B00780A121E47AC08AD09C8
:104860001248FF1212327402121BDAEEFAEFFB1238
:10487000122C12400B121208806D85188285198344
:10488000E0605175080D7509007808121E47740321
:10489000121C101249181212327402121BDA790D0E
:1048A0008026851882851983E0602975080D7509B1
:1048B000007808121E477403121C101249181212B5
:1048C000327402121BDA790C7A327B001214C6128F
:1048D00046E980137C0D7D007401121C10E0FAA3E0
:1048E000E0FB79001211F074080242678A0CEBF5C4
:1048F0000D3395E0F50EF50F780C227C3B7D857429
:104900008D2AFA740A3BFB22851882851983E0758B
:104910000A08750B00780A22E0FCA3E0FD7A857B8B
:104920000A22E9851882851983F0EAFEEBFF2274DA
:10493000F6121C3474FF121BC4E9FE900B4EE4F017
:104940008518828519837409F07C967D0DFA79812A
:104950001213647CA07D0D7A0679821213647CA503
:104960007D0D7A0579831213647CAB7D0D7A047911
:1049700084121364AC18AD197A017985121364900E
:10498000851C121E5A7A047B00900B50E0F912131A
:104990008E7404121BDA7C757D0B7A0179871213F1
:1049A000647CB07D0D7A0679861213647A547B8319
:1049B000EE602975080A7509007808121E477C54B4
:1049C0007D837A857B0A1212327402121BDA790A0D
:1049D0007A327B001214C61246E980097C0A7D00F7
:1049E00079001211F07508C87509007808121E4781
:1049F0007C007D007A857B0A1215087402121BDA8E
:104A000074010251DE74F6121C3474F9121BC4E9ED
:104A1000FE90780EE0851882851983F090780FE07B
:104A2000C0E07401121C10D0E0F0907810E0C0E0FB
:104A30007402121C10D0E0F0907811E0C0E0740312
:104A4000121C10D0E0F0907812E0C0E07404121C48
:104A500010D0E0F0907813E0C0E07405121C10D084
:104A6000E0F07AB67B83EE605E7508077509007822
:104A700008121E477CB67D837A857B0A1212327437
:104A800002121BDAAA18AB191214C075080C7808A8
:104A9000121E47EA2402FCE43BFD7A8C7B0A1212C8
:104AA000327402121BDA79137A327B001214C612A6
:104AB0004AF9121E477C007D007A857B0A12150890
:104AC0007402121BDA802F7C077D0079001211F02E
:104AD000AA18AB191214C08B09A9097C0C7D00EA35
:104AE0002402FAE439FB1212087C027D007A3B7B37
:104AF0008579001211F00251DC1246ED7508C87874
:104B0000082274F4121C34E9606C750804750900FD
:104B10007808121E477CBE7D847A857B0A12123289
:104B20007402121BDA7A877B0D12122C8A088B0909
:104B30007808121E477C877D0D7A897B0A12123213
:104B40007402121BDA7A877B0D12122CEA2404F904
:104B50007A327B001214C61246E97508C8F5097846
:104B600008121E477C007D007A857B0A12150874A6
:104B700002121BDA80187C077D007ABE7B837900E5
:104B80001211F07C0D7D007A877B0D121208024F06
:104B9000CA74F0121C3474F1121BC412492290839F
:104BA000F17401121C2A7407121AD79083EA740751
:104BB000121AD7900B4EF0750806F5097808121EE8
:104BC00047EEFCEFFD7403121C2212123274021223
:104BD0001BDA7401121C10E0124DC1121A7C780805
:104BE000790C1218A77402121C10124E3D1219E211
:104BF0007403121C10124E021219E27404121C10DB
:104C0000124DF01219E27405121C10124DDE121929
:104C1000E27406121C10124DD71219E275838575C5
:104C2000823478081215495003024D4B7408121C47
:104C30002A7A06798612136A7508067509007808BB
:104C4000121E47740A121C2AEEFAEFFB1212447469
:104C500002121BDAE9700BEEFCEFFD7A0679861280
:104C6000136475083B7509857C327D8385188285C0
:104C70001983E0750A0B750B00780A6063121E47F2
:104C80007A857B0A1212327402121BDAEEFAEFFBFB
:104C900012122C8A0A8B0B780A121E47EEFCEFFDCB
:104CA0007A907B0A1212327402121BDAEEFAEFFBD0
:104CB00012122C750A02750B00780A121E47AC08F6
:104CC000AD0974902AFA740A3BFB12123274021274
:104CD0001BDAEEFAEFFB12122CEA240DF9024D75E5
:104CE000121E477A857B0A1212327402121BDAEE08
:104CF000FAEFFB12122C8A0A8B0B780A121E47EE6F
:104D0000FCEFFD7A907B0A1212327402121BDAEE6B
:104D1000FAEFFB12122C750A02750B00780A121EAC
:104D200047AC08AD0974902AFA740A3BFB121232A0
:104D30007402121BDAEEFAEFFB12122C8B09A9098E
:104D4000EA240D124012121208803F7ADC7B818522
:104D50001882851983E060297508107509007808A4
:104D6000121E477CDC7D817A857B0A121232740226
:104D7000121BDA79107A327B001214C61246E980CF
:104D8000097C107D0079001211F090851C121E5ACA
:104D90007A047B00900B50E0F912138E7404121BFE
:104DA000DA7508C87509007808121E477C007D0076
:104DB0007A857B0A1215087402121BDA740F0242FC
:104DC0006724D0F508E434FFF5093395E0F50AF5DA
:104DD0000B908520780C22124E22124E2F22124E5A
:104DE0001A75F00AA4F50CA8F075F00A124E2B22E1
:104DF000124E1A75F064A4F50CA8F075F064124E0A
:104E00002B22124E1A75F0E8A4C50CA8F075F00319
:104E1000A428F875F0E8124E2B22124E22F50DE56B
:104E20000C22E024D0F50CE434FF22E50DA428F593
:104E30000D3395E0F50EF50F7808790C22124E1A15
:104E400075F010A4C50CA8F075F027A428F875F02B
:104E500010124E2B2274F4121C3474FE121BC4EA7E
:104E6000FEEBFF8908908558AC18AD197402121A30
:104E7000D7750A03F50B780A121E477C247D85122C
:104E800012447402121BDAE960381252BEFA7987B2
:104E900012136479001209987A3E7B83E508601D3D
:104EA000750A0A780A121E477C3E7D837A857B0A42
:104EB0001212327402121BDA790A024F697C0A025A
:104EC0004FBE750A02780A121E477C477D85EEFAAE
:104ED000EFFB1212447402121BDAE9603C8518825F
:104EE0008519837402124FCF121364790112099845
:104EF0007A5F7B83E508601C750A09780A121E47F1
:104F00007C5F7D837A857B0A1212327402121BDA6F
:104F1000790980557C09024FBE750A01780A121E74
:104F2000477C507D85EEFAEFFB1212447402121B8F
:104F3000DAE9605A8518828519837403124FCF12FB
:104F4000136479021209987A857B83E508603B75C2
:104F50000A08780A121E477C857D837A857B0A12AF
:104F600012327402121BDA79087A327B001214C6EC
:104F7000125125780A121E477C007D007A857B0A33
:104F80001215087402121BDA803B7C0880307AF11B
:104F90007B82E5086026750A0D780A121E477CF1AF
:104FA0007D827A857B0A1212327402121BDA790D25
:104FB0007A327B001214C61246E980097C0D7D000E
:104FC00079001211F07402121BDA7F04021D06F040
:104FD000AC18AD197A0179872274F2121C3474FE70
:104FE000121BC4890890856AAC18AD197402121A94
:104FF000D7AC18AD197A01798712136A750A6975E9
:105000000B837A267B83E5088518828519837003D4
:105010000250E2E06401703A750C0B750D00780CDB
:10502000121E477C267D837A857B0A121232740217
:10503000121BDA790B7A327B001214C612512C1231
:105040001E477C007D007A857B0A121508740212C7
:105050001BDA851882851983E06402703A750C0AA0
:10506000750D00780C121E477C497D837A857B0A7A
:105070001212327402121BDA790A7A327B0012148D
:10508000C612512C121E477C007D007A857B0A12C5
:1050900015087402121BDA851882851983E06403EF
:1050A000707E750C09750D00780C121E47AC0AADA8
:1050B0000B7A857B0A1212327402121BDA79097A92
:1050C000327B001214C6125125F50B780A121E47C6
:1050D0007C007D007A857B0A1215087402121BDAA7
:1050E000803EE0640170097C0B7D0079001211F0B4
:1050F000851882851983E06402700D7C0A7D007A30
:10510000497B8379001211F0851882851983E06448
:1051100003700D7C097D00AA0AAB0B79001211F017
:10512000740202401D1246ED750AC8221246ED7542
:105130000CC8780C2274F6121C3474FF121BC4E9DC
:10514000FEAC18AD197A057B031213B88518828559
:105150001983E07038A29640187AED7B81EE60707A
:105160007508107509007808121E477CED7D818056
:10517000327A857B81EE6011750811750900780817
:10518000121E477C857D81801A7C1180457AA97B1F
:1051900081EE603C7508107509007808121E477C86
:1051A000A97D817A857B0A1212327402121BDA7988
:1051B000107A327B001214C6124AF9121E477C0084
:1051C0007D007A857B0A1215087402121BDA8009A9
:1051D0007C107D0079001211F0024A007407121B46
:1051E000DA7F02021D0674F6121C3474FE121BC410
:1051F000E9FE7401121C2A7A057B031213B87401AC
:10520000121C10E0700B1252BEF97A057B031213C8
:10521000B27A9C7B82EE602975080E7509007808C9
:10522000121E477C9C7D827A857B0A1212327402A0
:10523000121BDA790E7A327B001214C61246E9800C
:10524000097C0E7D0079001211F0023DE674F61221
:105250001C3474FE121BC4E9FE7401121C2A7A0568
:105260007B031213B87401121C10E06401701385E3
:105270001882851983E41252C679017A057B0312DC
:1052800013B27A2E7B82EE602975080F75090078BB
:1052900008121E477C2E7D827A857B0A1212327498
:1052A00002121BDA790F7A327B001214C61246E919
:1052B00080097C0F7D0079001211F0023DE685180F
:1052C000828519837401F0AC18AD1922C082C083A5
:1052D000E9900C65F002555B74F7121C34E99002FA
:1052E000E1F07C197D037AFF7BFF1209029002E254
:1052F00074FFF0A3F0A3E4F0A3F0790512088A90FC
:1053000002E1E0F91207AC7A207B09120AD67F018C
:10531000021D0674F4121C348A088B09EB54806059
:10532000309002E1E0F912126E8A0A8B0BAE0AAFDE
:105330000BEE4F60138E828F83E064B0700312080F
:10534000A2EEFAEFFB12125CAA08E5096480FB806A
:10535000047A007B0002552A74F2121C3474FC1289
:105360001BC4EAFEEBFFEE4F60387402121C10EE15
:10537000F0A3EF12578FECF0A3ED12578FAA82AB78
:10538000831207A6E9F50870737412121C101263D9
:1053900043E50A450B60658E828F83125406EE4FFB
:1053A000700575080280557A067B001212F28A0C8D
:1053B0008B0DA80CA90DE8497005750813803D8870
:1053C000828983E4125410A3A3EEF0A3EF1267DCEA
:1053D000E50AF0A3E50BF09002E71254989002E77B
:1053E0006017E0FCA3E08003EAFCEBFD8C828D8378
:1053F00012549870F38C828D83126268A908740429
:10540000121BDA0269DEA3A3A3A3E0FEA3E0FF223E
:10541000F0A3F0888289832274F2121C34890AE98D
:1054200075F017A4FEAFF09002E6E4F09002E412EB
:105430005498600A1212F89002E4E4F0A3F0EEFA35
:10544000EFFB1212F28A088B09EA4509602FEEFC85
:10545000EFFD790012124A9002E4E508F0A3E50995
:10546000F07B008008125482E4F0A3F00BEBC395AC
:105470000A40F2E50A9002E6F07900800279130210
:1054800069DEEB75F017A4F8A9F09002E4E028FAC1
:10549000A3E0398A82F58322125FFEEA4B2274F47C
:1054A000121C34750800750900740C121C10126768
:1054B000B0FEE9FF800CE5082401F508E509340099
:1054C000F509C3E5089CE5099D503285080A850960
:1054D0000B7403780A121BB1EA250AF8EB350BF9B5
:1054E00088828983A3A3A3A3A3A3126343EE650ABF
:1054F0007003EF650B70BFE8FAE9FB80047A007B6C
:1055000000802774F4121C347900EAA2E0501B7565
:10551000085A7509847808121E477C047D007A6752
:105520007B0C1208847402121BDA7F04021D06C071
:1055300082C0839002E7125562601C88828983A32F
:10554000A3E06A7003A3E06B8882898370E8A3A359
:10555000A3A3125FFA80047A007B00D083D082027A
:105560000132126AB1E8492274EE121C3474FC1242
:105570001BC4EAFEEBFF851882851983E4F0A3F0D3
:10558000EE240212624CEE240512577DEE2404F53F
:105590000EEF125B62E024FE603924FC604624FEBC
:1055A000605224FE605E24FE700302568224FE7068
:1055B000030256FA24FE700302570924FE70030208
:1055C000571824FC700302572724FE700302573635
:1055D0000257739003007417F0A3E4125797120553
:1055E00024025773851882851983AC82AD83120813
:1055F000A8025743851882851983AC82AD831208AF
:10560000AE025743850C08850D097402121C10ACBC
:1056100082AD83850882850983125FFA1207CA8AE0
:105620000C8B0DAC0CAD0DEC4D6042E4F50CF50DA2
:10563000780C121E47750C00750D03780C121E476E
:10564000750C01750D03780C121E477408121C109E
:10565000121E5E7916125FF41208EA7408121BDA41
:10566000E9F50C700B125FF012053C800F750C0110
:10567000850882850983125785126268850C0802A5
:1056800057467402121C10AC82AD83850C82850DC6
:1056900083125FFA1207CA8A108B11AC10AD11EC9D
:1056A0004D6043850C82850D83A3A3121E5E751089
:1056B000007511037810121E4775100175110378DB
:1056C00010121E477408121C10121E5E7916125F0B
:1056D000F41208EA7408121BDAE9F509700B125F7C
:1056E000F0120542800F750901850C82850D831229
:1056F0005785126268850908804C85188285198350
:10570000AC82AD831208B4803A851882851983ACC7
:1057100082AD831208BA802B851882851983AC82EA
:10572000AD831208C0801C851882851983AC82ADB8
:10573000831208C6800D851882851983AC82AD83DB
:105740001208CCE9F508E50860298E828F83A3E072
:105750006414601F850E82850F83E090030012574A
:105760008F126AAD900301126268E508A312579781
:1057700012051EEEFAEFFB120848026154F50CEF19
:105780003400F50D22126AB185188285198322F042
:1057900085188285198322F07C007D03850A828525
:1057A0000B83125FFE2274EE121C3474FC121BC4B5
:1057B0008A0A8B0B8C0E8D0FEA2405F508EB34005A
:1057C000F5097C157D0079007A007B0312124AE509
:1057D000082402F50CE50912578085188285198383
:1057E0008582108583117810121E478508828509ED
:1057F00083A3A3A3A3125CAA121E47E5082405F500
:1058000010E5093400F5117810121E47850C8285C9
:105810000D831260041207C47406121BDA8A108BFF
:1058200011AE10AF11E50A2402F50AE50B12624F22
:10583000EE4F700302596C80177402121C10125F35
:10584000FA88828983EAF0A3EBF0900300E004F089
:10585000900300E0C39405400302596CE4F510F591
:10586000117810121E477510E97511027810121E7A
:10587000477510EA7511027810121E477406121C43
:1058800010121E5E7910EEFCEFFD125FF41208EAB2
:105890007408121BDAE9705E850882850983A3A368
:1058A000A3A3A3A3A3E0F89002E9E0687048125C08
:1058B000AA121E477CEA7D02E5082408FAE50934AD
:1058C00000FB1212447402121BDAE960298E828FE7
:1058D00083A3A3A3A3125FFA900300E0F510740260
:1058E0007810121BB174012510F58274033511F57F
:1058F00083EAF0A3EBF07402121C108582108583FA
:10590000117810121E477402121C10121E5E850CB4
:1059100082850D83126AC21207D07404121BDA8AC0
:10592000108B11AE10AF11900300E0F5107511004F
:1059300074027810121BB174002510F8740335112D
:10594000F988828983A31254987003025830E8249E
:1059500003F8E93400F9EE4F600302583988828970
:105960008374FFF0A3F0900300E004F0900300E0E4
:10597000600A125FF01205307900800B850882857D
:10598000098312625F790A02615474EA121C34744A
:10599000FE121BC48C128D13EA2405F50CEB126C5D
:1059A0002C12540A750800750900EA2402F510EB60
:1059B0003400F51185188285198385820A85830B49
:1059C000780A121E47850C82850D83A3A3A3A31218
:1059D0005B6C121E47E50C2405F50AE50D12624FBB
:1059E000780A121E47850C82850D83126AC0120741
:1059F000C47406121BDA8A0A8B0BEA450B70030289
:105A00005B1DEA2404F50EEB125B6212540A8A82D3
:105A10008B83A3A3A3E0F9851082851183125FFA1B
:105A20001207B2E9F5096003025B1DE4F514F515F0
:105A30007814121E477514E97515027814121E4762
:105A40007514EA7515027814121E477406121C109C
:105A5000121E5E7913AC0AAD0B851082851183127C
:105A60005FFA1208EA7408121BDAE9F5096003020A
:105A70005B1D9002E9E0F8E5087009E0240290035C
:105A800001F08017900301E0FCE82402FAE43400FE
:105A9000FBEA6C7001EB6003025B21850882AA823D
:105AA000125CA19414125C995073850E82850F8349
:105AB000E0C0E074022A125B59D0E0F00508850EC0
:105AC00082850F83A3E0C0E085080A7402250A12CC
:105AD0005B59D0E0F005089002E9125B6C121E479A
:105AE0007CEA7D0285080A7402250AFA74033400F0
:105AF000FB1212327402121BDA9002E9E02508F55B
:105B00000874FF6E700374FF6F6012EE24010EEFD5
:105B10003400FFE508C3941450030259B4E508604B
:105B200013125EE5851082851183125FFA12053625
