:020000040000FA
:0600000002010702253891
:03002B0002296344
:03003300022A039B
:03003B000229890E
:0300430002293D52
:030053000225AED5
:100083000223E7E5C754F84401F5C77901220000CC
:100093000080FB120086B900030200F1E4792178A5
:1000A30008B800028004F709D8FCE479297802B87B
:1000B30000028004F709D8FCE49002817824790ACD
:1000C3008002F0A3D8FCD9FA7AA47B0B900137788D
:1000D300D579048015E493A3AD82AE838A828B83A2
:1000E300F0A3AA82AB838D828E83D8E9D9E7758288
:1000F300047583CA740312011975829175830074A0
:100103000012011975D00075813F751881751902A8
:10011300759F00020096C09FF59FE473D09F22D085
:1001230083D082C09FE493C0E0740193C0E0740263
:1001330093F59F22FF0000B4000028002800283018
:1001430075A000A000A000A00000080008E001F0D6
:10015300001000100010001000100010005000509C
:1001630000500010001000D0070000000000000F36
:100173000001000500307507001000010081FF0039
:10018300000000FF090727070F07FF02020208020A
:100193005000A0000000E80302B093010000639345
:1001A300028293010000FB0B028A93010000B30259
:1001B300028293010000FC0B029293010000C9022A
:1001C300028293010000FD0B029493010000CB0215
:1001D300028293010000FE0B029893080000CC02F8
:1001E300028293010000FF0B029A93010000000CAE
:1001F300FF0100FF2002B09301000060930282938D
:10020300010000640C029C9300000000000286932E
:100213000300001903390D390D390D390D390D3925
:100223000D390D390D390D390D390D390D390D0FC5
:100233001027100910020202020202020202010D3B
:10024300000000100102B0930100006F930282933B
:10025300010000A50C029E93010000400702829357
:10026300010000A60C0296930100001791028293ED
:10027300010000A70C029093010000C59002829335
:10028300010000A80C028E930100004D8F0282939F
:10029300010000A90C028C93010000838F0282935A
:1002A300010000AA0C0288930100005F8F02829371
:1002B300010000AB0C027893010000958F0282933A
:1002C300010000AC0C027293010000B7900282930C
:1002D300010000AD0C02AE91010000AE0C01E80379
:1002E300053F100AFFFFFFFF0001307503020106FF
:1002F30000000000000000000000000000000000FB
:10030300000000000000000000000000FFFF0600E6
:10031300800CE803840A524C323534582D56312E62
:1003230038330D0A0053657269616C436F6D003990
:100333003630300030303130300030303230003041
:100343003030303030000A0953657269616C436F95
:100353006D0000000000000000000000000000002D
:10036300000000000201060302F0FF536572696199
:100373006C436F6D000000000000000000000000EF
:10038300DD140000F514FB14E3140A436861726181
:100393006374657269737469632031000243686131
:1003A3007261637465726973746963203200084310
:1003B3006861726163746572697374696320330081
:1003C3001043686172616374657269737469632051
:1003D30034001801020304050000000000000000BF
:1003E30000000000000000436861722050617261E8
:1003F300706F7274000A010203040500000000001C
:100403000000000000000000000043686172204209
:100413006C6564617461706F72740012010203048D
:1004230005000000000000000000000000000000C4
:10043300436861722053657269616C706F727400F6
:1004430002B0930100006993028293010000FA0D48
:1004530002A2930300008C0B028493010000FB0DA6
:100463000282930100000C0E02A4930100008D0B85
:100473000284930100000D0E0282930100001E0E00
:1004830002A6930200008E0B0284930100001F0E4C
:10049300028293010000300E02A8930000008F0B2C
:1004A300028693030000900B028493010000310E37
:1004B300028293010000420E02AA93020000430E3F
:1004C300028693030000960B028493010000570EEB
:1004D300028293010000650E02AC93030000660ED6
:1004E3000284930100007A0E0282930100008B0EB6
:1004F30002AE930100008C0E0286930300009C0B56
:10050300028493010000A00E120122A3BA03120178
:1005130022BABA03120122EBBA0312012226BB0349
:1005230012012250BB031201227ABB031201229152
:10053300BB03120122A8BB03120122BFBB0312019A
:1005430022E8BB03120122FBBB0312012211BC03ED
:1005530012012224BC031201224BBC031201224BC1
:10056300C1021201224FC20212012287C2021201EA
:1005730022AAC202120122B5C202120122D8C20269
:10058300120122E7C302120122BCC4021201223764
:10059300C502120122BFC502120122FAC5021201CD
:1005A3002231C602120122BFC60212012298C702DB
:1005B300120122F8C70212012203C8021201228289
:1005C300C80212012285C80212012288C802120140
:1005D3002217C9021201221AC9021201224AC902B0
:1005E30012012274C90212012262CA0212012214E8
:1005F300CB021201222F9B03120122579B031201EC
:1006030022859B03120122BC9B031201221A9C0325
:10061300120122659C03120122B09C03120122F0F5
:100623009C03120122369D03120122649D031201D1
:1006330022219E031201222B9E03120122389E03C4
:100643001201226B9E03120122379F0312012243E0
:100653009F031201225B9F03120122659F03120174
:100663002231C6031201223FC60312012257C603D9
:100673001201226FC6031201228AD9011201223606
:10068300DA01120122B1DA01120122D2DB011201D5
:10069300220EDC01120122B7DC011201229EDD01D0
:1006A30012012202DF0112012259DF01120122DAB3
:1006B300DF01120122CAE00112012217E101120136
:1006C300229DE101120122CFE101120122E3E301A4
:1006D30012012225E40112012243E401120122C680
:1006E300E4011201229AE50112012262E6011201DC
:1006F30022BEF60212012291F7021201223AF802F7
:100703001201228DF8021201223DF902120122C9BF
:10071300F902120122B5FA02120122E4FA021201CD
:1007230022F7FB021201223FFC0212012214FD02F6
:1007330012012250FD021201226CFD02120122431A
:10074300C8031201226DA80312012283A803120118
:1007530022A9A803120122C5A903120122CFA903CA
:1007630012012204AB03120122FCAB03120122711A
:100773008C03120122A18D03120122D48D031201D5
:10078300221E8E03120122E58F031201229BC9014F
:1007930012012205CA0112012264CB011201227443
:1007A300CB01120122A1CB01120122F8CB011201CC
:1007B30022A1CC01120122A8CD0112012272CE0185
:1007C300120122D2CF0112012215D001120122BA45
:1007D300D00112012207D1011201222DD1011201F0
:1007E300223BD30112012240D30112012245D5013C
:1007F30012012292D50112012205D60112012238DB
:10080300D601120122DAD60112012283D701120185
:1008130022BBD701120122BED70112012206D80141
:1008230012012246D8011201229DD801120122652C
:10083300B5031201227DB503120122C5B5031201CE
:1008430022DBB50312012222B60312012236B703BB
:10085300120122C3B7031201220EB8031201220CA4
:100863004E00120122184E00120122534E001201B3
:1008730022984E00120122584F00120122DE4F002F
:100883001201224350001201226F5000120122A8CC
:100893005000120122E65200120122CA5400120132
:1008A30022B05600120122F35700120122415A00CE
:1008B300120122535B001201229E5C00120122AE40
:1008C3005D00120122CB5D00120122065E001201BF
:1008D30022285E001201228B5E001201224C63006B
:1008E300120122E163001201223264001201225933
:1008F3006400120122AB6400120122C964001201D8
:10090300222365001201220C660012012282670075
:10091300120122066800120122989103120122A2F9
:100923009103120122E591031201220092031201A5
:1009330022909203120122B89203120122F592032C
:100943001201222C9303120122559303120122CA8E
:100953009303120122DF9303120122F49303120182
:10096300222594031201223994031201225E940377
:10097300120122989403120122C49403120122FC4F
:100983009403120122A69503120122EF950312018B
:100993002219960312012244960312012242C20332
:1009A3001201224AA90212012278A902120122C6C7
:1009B300AA02120122A6AB02120122C5AB02120146
:1009C3002242AC0212012285AC02120122DBAD02EB
:1009D3001201229CAE0212012223B102120122C48F
:1009E300B102120122BAB202120122B7B3021201FA
:1009F3002211B5021201229CB502120122E7C003A3
:100A030012012250C103120122A4C103120122CBFD
:100A1300C103120122FCC103120122EC9F03120144
:100A23002259A003120122A0A003120122B8A1039C
:100A3300120122B4A20312012297A303120122C8B6
:100A4300DE021201220ADF02120122DCDF0212019E
:100A530022B5E002120122AFE10212012291E20269
:100A6300120122FAE202120122B0E302120122244D
:100A7300E40212012290E402120122B9E4021201FB
:100A83002233E502120122CCE50212012231E602F1
:100A930012012246E6021201228CE602120122A56D
:100AA300E6021201220AE7021201220DE7021201F5
:100AB300226CB20312012294B203120122D2B203B6
:100AC30012012290B303120122F7B303120122137E
:100AD300B4031201223BB4031201226BB4031201CB
:100AE300227AB403120122F7B4031201221DB503C3
:100AF300120122DBB80112012279BA0112012294F8
:100B0300BC01120122D0BC01120122FDBC01120161
:100B130022E2BD0112012229BE011201226DBE0192
:100B23001201227FBE01120122BFBE01120122EC7B
:100B3300BE0112012237BF0112012277BF01120148
:100B430022A5BF01120122F7BF0112012287C001B2
:100B530012012225C3011201223BC5011201227990
:100B6300C5011201220AC7011201224FC701120156
:100B730022C6C70112012210C80112012236C80180
:100B83001201224FD502120122CED5021201229068
:100B9300DB021201229FDC0212012207DE02120194
:100BA300229EDE02120122B59301120122FE93015D
:100BB3001201222B94011201225E94011201226B75
:100BC30094011201227794011201228994011201E6
:100BD30022709501120122CE950112012203960182
:100BE300120122469701120122939701120122B7A3
:100BF3009701120122249801120122E298011201A5
:100C0300229B9901120122089A01120122BA9A0128
:100C1300120122CA9A01120122519B0112012210D0
:100C23009C011201223D9C01120122B69C0112017A
:100C330022139D011201225D9D01120122F39D01E8
:100C4300120122BE9E01120122739F01120122E8AA
:100C53009F0112012249A001120122B3A001120136
:100C630022ECA0011201228EA1011201229EA201F7
:100C7300120122DEA201120122FBA2011201221A99
:100C8300A30112012261A30112012286A301120111
:100C930022B3A3011201222DA4011201226EA40189
:100CA30012012292A50112012242A60112012299E8
:100CB300A60112012203A7011201221CA70112019E
:100CC3002285CB02120122D8CB02120122E4CB02ED
:100CD300120122B9CC02120122E0CC021201221B22
:100CE300CD0212012287CD02120122C3CD021201CD
:100CF30022FCCD0212012214CE0212012269CE027D
:100D030012012282CE02120122CBCE02120122DE76
:100D1300CE02120122F8CE021201220ECF021201DC
:100D23002241D00212012288D1021201228AD20268
:100D330012012284D30212012276CB031201221361
:100D43009C02120122439C021201220BA0021201F7
:100D53002262A1021201222BA202120122ABA302E0
:100D63001201227CA402120122B9A402120122DC84
:100D7300A4021201221AA50212012223A5021201C2
:100D8300226DA50212012277A50212012221A602D9
:100D9300120122FAA6021201224EA702120122B068
:100DA300A70212012203A80212012232A802120191
:100DB300226FA8021201224EA701120122B5AA0135
:100DC300120122BBAA011201223DB001120122B677
:100DD300B4011201228CB80112012206AC031201E4
:100DE300227CAC0312012292AC03120122D3AC0386
:100DF3001201220DAD0312012286AD03120122C19D
:100E0300AD0312012234AE0312012272AE031201AA
:100E1300227BAE0312012287AE03120122A3AE038B
:100E2300120122CEAE03120122E4AE0312012228E4
:100E3300AF031201226C96031201227F9603120163
:100E430022999603120122C29603120122059703E7
:100E5300120122449703120122829703120122E70F
:100E63009703120122FC9703120122079803120130
:100E7300221498031201222B98031201223998039A
:100E83001201224498031201225098031201226393
:100E930098031201226E9803120122919803120102
:100EA30022389903120122489903120122629903FD
:100EB3001201227F99031201229B9903120122C07E
:100EC3009903120122CB9903120122E09903120123
:100ED30022F49903120122559A031201225B9A0309
:100EE300120122619A03120122679A031201227FDF
:100EF3009A03120122B29A031201220580021201FF
:100F03002289800212012238810212012297820271
:100F1300120122B88402120122A48502120122D9ED
:100F23008502120122FB8502120122AA8602120106
:100F330022A28802120122CB88021201225D8902B9
:100F43001201228F89021201229C8902120122F3CB
:100F53008902120122198A02120122868C021201CD
:100F630022898D02120122E18D021201227BE80106
:100F730012012285E9011201226CEA011201227693
:100F8300EA0112012298EA01120122A4EA011201E4
:100F9300223DEC011201226CEC0112012288ED01C9
:100FA300120122E1ED0112012247EF011201222673
:100FB300F00112012282F001120122EFF00112016D
:100FC300222AF10112012269F10112012222F40104
:100FD3001201223CF401120122C8F401120122D6AB
:100FE300F4011201222FF5011201223DF501120134
:100FF30022B0F50112012214F6011201225EF6015C
:101003001201221DB6021201223FB602120122650D
:10101300B8021201227ABB0212012292BC0212010F
:101023002245BD0212012227BE021201225DBC032A
:1010330012012282BC03120122F4BC0312012244D6
:10104300EF021201224DEF0212012256EF021201AA
:10105300222DF002120122DEF10212012214F20209
:101063001201224EF20212012284F202120122BE66
:10107300F202120122F2F2021201221EF302120103
:101083002267F302120122A1F302120122EAF30200
:1010930012012242F40212012277F402120122D237
:1010A300F4021201220CF5021201225DF502120173
:1010B3002293F502120122CDF502120122FBF50261
:1010C3001201221EF60212012208C7031201223462
:1010D300C7031201228FC70312012299C70312010A
:1010E30022A9C70312012258AF031201227DAF03C5
:1010F300120122A7AF03120122EDCA031201226DCE
:101103006800120122D26A001201228E6C001201C1
:10111300227B6D00120122026E00120122826E00F8
:10112300120122A76E001201220A6F001201221679
:1011330072001201229272001201228173001201C5
:1011430022B97300120122FC7300120122A8750058
:10115300120122FD75001201224A7600120122BCFF
:101163007600120122E37600120122FD76001201BD
:1011730022127800120122227800120122497900FA
:101183001201226B7900120122A17900120122F2CD
:101193007A00120122317B001201225D7C001201D0
:1011A30022EFFF01120122A4CA03120122E3CA03A0
:1011B30012012250CB03120122C7C803120122D706
:1011C300C803120122E9C8031201222DC903120127
:1011D300225BC303120122DFC30312012245C403AE
:1011E30012012273CB03120122FC7F00120122633E
:1011F300CB03120122827C001201221C7D0012010A
:1012030022BB7D00120122537E00120122C97E00FF
:10121300120122D37E00120122E37E001201227505
:101223007F001201228B7F00120122E67F00120150
:1012330022F97F0012012257CA0312012274CA0342
:10124300120122E3FF02120122F3FF0212012258CC
:10125300C50312012281C503120122AAC50312018B
:1012630022ECC503120122F48603120122FE860337
:101273001201223E8703120122878703120122C132
:1012830087031201221B88031201223A88031201E9
:1012930022438803120122948803120122BD88038A
:1012A300120122C78803120122338903120122C1CA
:1012B30089031201221A8A03120122488A031201A6
:1012C30022C88A031201220B8B03120122468B03CD
:1012D300120122588B03120122778B031201228001
:1012E3008B03120122458C0312012202BE03120159
:1012F3002257BE03120122C5BE0312012235BF03CA
:1013030012012238B80312012262B80312012237F4
:10131300B9031201222BBA031201225EC403120184
:1013230022E1FD0212012217FE0212012250FE02E7
:10133300120122A9FF0212012236C9031201224C13
:10134300C90312012256C903120122A0C9031201C3
:101353002231E702120122EEE70212012229E802FA
:1013630012012251E802120122B3E802120122FF04
:10137300E80212012263E902120122DDE9021201ED
:1013830022DFEA0212012292EC0212012214ED0280
:1013930012012279ED0212012290ED02120122992B
:1013A300EE02120122D7EE0212012259A403120106
:1013B3002272A40312012216A50312012256A503C9
:1013C3001201226FA503120122A2A503120122EF2B
:1013D300A50312012223A60312012265A60312010B
:1013E300222F8E02120122B891021201224093028F
:1013F300120122979302120122B6930212012234A0
:101403009402120122D29502120122B6960212010F
:1014130022A09A02120122709B0212012289BF03A9
:10142300120122FDBF03120122C02A00120122D0A1
:101433002A00120122292B001201221D2F00120162
:1014430022E12F00120122073100120122963100FE
:101453001201225A32001201224533001201225B8B
:101463003400120122AF34001201224D3600120162
:1014730022C038001201222B3900120122653B00E1
:10148300120122DF3D00120122FF3E001201220958
:1014930041001201223D42001201226F4400120159
:1014A30022454500120122424600120122D1460084
:1014B300120122954900120122194B0012012275D3
:1014C3004C00120122264D001201228D4D00120103
:1014D30022E7F60112012244F9011201223AFB012B
:1014E30012012276FC0112012226FD01120122A71C
:1014F300FD0112012228FE0112012276FF011201D1
:10150300220080031201225B8003120122788003F0
:10151300120122D6810312012252820312012233C5
:101523008303120122BB8603120122B3C7031201F4
:1015330022C3FF0112012232CB03E066701008A31D
:10154300E066700A08A3E066700408A3E06622C39D
:10155300E7960809E7960809E7960809E79622C37C
:10156300E09608A3E09608A3E09608A3E09622C0BD
:1015730008C3E096F50808A3E096420808A3E0969E
:10158300420808A3E09645087001D3D00822080852
:1015930008E630E7111219BF1215A9080808C64456
:1015A30080C618181822181818E9799EC608CAC6E2
:1015B30008CBC608CCC6C370207996CACBCC7019A9
:1015C300798ECBCC70137986CC700EF9802ACA330E
:1015D300CACB33CBCC33CC331930E7F2CCCBCA33C1
:1015E30050147004EA30E00DE4CA3ACACB3BCBCCCA
:1015F3003CCC500209C3E913C6CC182313C6CB183D
:10160300C6CA18C6F92212164920F01430E72B7403
:10161300FFFCFBFA747F8022E4FCFBFA7480801ADF
:10162300B48008BC00F2BB00EF800F50EBF9E4C3B9
:101633009AFAE49BFBE49CFCE499C6CC18C6CB184D
:10164300C6CA18C6F922E4C9C608CAC608CBC6D397
:10165300330308CCC63392F0C3947F402E941840D2
:1016630019C9B90704CACBCC225025C309CA33CA46
:10167300CB33CBCC33CC33D9F422F4600DC9CCC3F8
:1016830013CB13CBCA13CAD9F6CC22E4FCFBFA2240
:1016930014FCFBFA22E62618461846184622E727CA
:1016A30019471947194722E60846087009E626082C
:1016B3007005E633F4220822E70947097009E72792
:1016C300097005E733F4220922E6084608C31346E6
:1016D30008336002E633F422E7094709C3134709D5
:1016E300336002E733F4221216CC70041818182260
:1016F3001216DB700D74FFF61819F61819F618197F
:10170300F622E7548066F6121698700F1216A1702F
:10171300F014F608F608F608F680D11216A1700C3C
:10172300F608F608768008E6447F80EC1216BB7054
:101733000C1216AA60BFE65480F6E480BB1216AA08
:10174300700519191980A5E869700C763F18768021
:1017530018F618F6E8F922E6CDC0E018ECC0E0E68A
:1017630033CD33CDD313F6E719FCE7191933CC3353
:10177300C3947F400ECD9D502408E65480F6E418B0
:10178300F6800FF4043D14501408E6447FF61876EF
:1017930080E418F618F6D0E0FCD0E0FD22CCD31399
:1017A300CCFD18E4C6CBC0E018E4C6CAC0E0080804
:1017B300ED08C633E613F618E433C675F003C3CA5F
:1017C30097CA09CB97CB199C40047D08802EBD0096
:1017D3000302189316B6FF050606081618C3CA3384
:1017E300CACB33CB33CA27CA09CB37CB193CC37D0A
:1017F30008803E187D0820E75CC633C6CA33CACBCF
:1018030033CB33DDF1D5F0EB30E77BCA97CA09CB95
:10181300974ACB199C406F4B7025E620E0218066E8
:10182300187D08C3CA97CA09CB97CB199CD3C63373
:10183300C6CA33CACB33CB3350C9DDE7D5F0E1D3C6
:10184300E4C636C608C636C608C636C608C636C691
:101853001818188031C3CA97CA09CB97CB199CB300
:101863004097C633C6CA33CACB33CB33DD34D5F046
:101873002EC6A2E0C640C8CA27CA09CB37194A7088
:10188300BECB3CB480B90808E63308E633601F18C2
:101893001818D0E0FAD0E0FBD0E0FCD0E0FD22182D
:1018A3007D08CA27CA09CB37CB193CD3808013F6EE
:1018B30018E4B67F11F618B6FF0EF618C60470D2F8
:1018C3000808768080CAF618F618F680C508080856
:1018D300EAC0E0EBC0E086F0E7A4FA180986F0E777
:1018E300A42AFA180986F0E7A42AFA180986F0E769
:1018F300A42AFA1986F0E7A4FBE5F02AFA19088668
:10190300F0E7A42BFBE5F03AFA190886F0E7A42BDD
:10191300FBE5F03AFA18180986F0E7A4C5F02BFBAB
:10192300E43AFA1908E7C5F0C6A426F6E5F03BFB4E
:10193300E43AFA1886F0E7A4F6E5F00826F6E43B65
:1019430008F6E43A08F6D0E0FBD0E0FA22E4CFC090
:10195300E0E4CEC0E0E4CDC0E0E4CCC0E075F0202C
:10196300E626F608E633F608E633F608E633F61815
:101973001818EC33FCED33FDEE33FEEF33FFC3EC0D
:101983009709ED9709EE9709EF97191919400FFF7A
:10199300EC97FC09ED97FD09EE97FE191906D5F0B2
:1019A300BFECF709EDF709EEF709EFF7191919D0AD
:1019B300E0FCD0E0FDD0E0FED0E0FF22181818E4F0
:1019C300C396F608E496F608E496F608E496F6223B
:1019D3006016080808C6C313C618C613C618C6136C
:1019E300C618C613C6D5E0EA2270090808082260A3
:1019F30016181818C6C333C608C633C608C633C676
:101A030008C633C6D5E0EA22E627F60809E637F624
:101A13000809E637F60809E637F622E026F608A3B2
:101A2300E036F608A3E036F608A3E036F622E02611
:101A3300F008A3E036F008A3E036F008A3E036F0A0
:101A430022C3E697F60809E697F60809E697F6082B
:101A530009E697F622C3E096F008A3E096F008A300
:101A6300E096F008A3E096F022E056F608A3E056CD
:101A7300F608A3E056F608A3E056F622E056F0086F
:101A8300A3E056F008A3E056F008A3E056F022E0E6
:101A9300F608A3E0F608A3E0F608A3E0F622E6F0D2
:101AA30008A3E6F008A3E6F008A3E6F022E0FAA311
:101AB300E0FBA3E0FCA3E0FD22EAF0A3EBF0A3EC40
:101AC300F0A3EDF022E0F8A3E0F9A3E0FAA3E0FB32
:101AD30022E8F0A3E9F0A3EAF0A3EBF022CAC0E006
:101AE300E6F0A308DAFAD0E0FA22CAC0E0E0A3C520
:101AF30082CCC582C583CDC583F0A3C582CCC58204
:101B0300C583CDC583DAE6D0E0CA22C3E498F8E4FE
:101B130099F9121B4F8026C3E49AFAE49BFBE92050
:101B2300E7E9121B4FE498F8E499F922C3E498F823
:101B3300E499F9121B4FE498F8E499F9C3E49AFA8B
:101B4300E49BFB22EB20E7CFE920E7E0B90010BBE1
:101B53000008E88AF084F8AAF022E4FBC8FA22EB32
:101B630070227B10C833C8C933C9335007C39AC323
:101B7300DBF280069A50012ADBEAC833F4C8C93382
:101B8300F4C9FA2275F008E4C833C8C933C933C9A4
:101B93009AC99B5004C92AC93BD5F0ECFBC833F45E
:101BA300C8E4C9FA22600D08C6A2E713C618C61313
:101BB300C6D5E0F322600C08C6C313C618C613C605
:101BC300D5E0F422700422600D18C6C333C608C6DC
:101BD30033C6D5E0F41822251810AF08F518400CC9
:101BE30015198008F51840021519D2AF2200C0D08C
:101BF300251810AF08F518500C05198008F5185072
:101C0300020519D2AFD0D0222518F58210AF08F5FE
:101C130018400C15198008F51840021519D2AF8524
:101C23001983222518F582E43519F583222518F83E
:101C3300E43519F9222518FAE43519FB222518FC95
:101C4300E43519FD22E4732518C582C0E0E5193493
:101C5300FFC583C0E0E518C3958224F810AF08855B
:101C630083198582188008858319858218D2AFCE9F
:101C7300F0A3E520F0A37808E608F0A3DEFAEFF07E
:101C8300A3E58124FAF8E608F0A3E608F0A3E60842
:101C9300F0A30808E608F0A3E608F0A31581158170
:101CA300D0E0FED0E0F8158115811581E8C0E0EEA3
:101CB300C0E0222518C582C0E0E51934FFC583C002
:101CC300E0E518C3958224F910AF0885831985824E
:101CD300188008858319858218D2AFCEF0A3E5203A
:101CE300F0A37808E608F0A3DEFAEFF0A3E5812479
:101CF300FBF8E608F0A3E608F0A30808E608F0A35B
:101D0300E608F0A315811581D0E0FED0E0F8158137
:101D13001581E8C0E0EEC0E022851983851882E0D2
:101D2300A3FEE0A3F5207808E0A3F608DFFAE0A31A
:101D3300FFE0A3C0E0E0A3C0E0E0A3C0E0E0A3C0F5
:101D4300E0E0A3C0E010AF088582188583198008FE
:101D5300858218858319D2AFD083D08202011F8573
:101D63001983851882E0A3FEE0A3F5207808E0A399
:101D7300F608DFFAE0A3FFE0A3C0E0E0A3C0E0E0E1
:101D8300A3C0E0E0A3C0E010AF08858218858319E3
:101D93008008858218858319D2AFD083D08222C070
:101DA300D02518C582C0E0E51934FFC583C0E0E53E
:101DB30018C3958224F310AF088583198582188090
:101DC30008858319858218D2AFC8F0A3E9F0A3EA86
:101DD300F0A3EBF0A37908E709F0A3D8FAECF0A39A
:101DE300EDF0A3EEF0A3EFF0A3D0E0F0A3D0E0F08A
:101DF300A3D0E0F0A3E520F0A3E5F0F0A32285193A
:101E030083851882E0C0E0A3E0F9A3E0FAA3E0FB36
:101E1300A37808E0F608A3DFFAE0FCA3E0FDA3E063
:101E2300FEA3E0FFA3E0C0E0A3E0C0E0A3E0F5D0A1
:101E3300A3E0F520A3E0A3F5F010AF08858319858F
:101E430082188008858319858218D2AFD082D08307
:101E5300D0E0F8D0E032740480067402800274018A
:101E6300C0E0F404121C0BD0E0121AE022740480C8
:101E73000474028000CCC0E0EDC0E0E518C39CCC44
:101E8300AD1950011D10AF068C188D1980068C18E2
:101E93008D19D2AF121AEDD0E0FDD0E0FC22D08331
:101EA300D082C5F0E493A3C5F0C395F0F5F0E493B5
:101EB300A3C395F04005E5F0048001E475F002A4A6
:101EC3002582F582E5F03583F583E493A3C0E0E44E
:101ED30093C0E022D083D082E9C0E0E493A3C38619
:101EE300F0C5F095F0F908E493A386F0C5F095F0FA
:101EF300700BE493A3C3994005E9048002A3E4753E
:101F0300F002A42582F582E5F03583F583D0E0F96C
:101F1300E493A3C0E0E493C0E022D083D082ECC07A
:101F2300E0EDC0E0E493A3FCE493A3FDED4C600D6E
:101F3300121F69EC24FFFCED34FFFD80EFE493A353
:101F4300FCE493A3FDED4C600D121FA8EC24FFFCF1
:101F5300ED34FFFD80EFD0E0FDD0E0FCE493A3C0BF
:101F6300E0E493C0E022C0E0C3E4939608740193D5
:101F73009618400FE493667008087401936618700E
:101F8300007019A3A3C3E49396087401939618A34E
:101F9300A3400DD0E0D0E0D0E0021F59A3A3A3A338
:101FA300A3A3D0E022C0E0C0F088F0E493667008F9
:101FB3000874019366187000A8F0A3A3700BD0F007
:101FC300D0E0D0E0D0E0021F59A3A3D0F0D0E022AC
:101FD40074F5121CB6EAFEEBFFEE2434F8EF34007D
:101FE400F988088909EE2435122100F8EE24371205
:101FF4002100F50AEC850AF0A4FCAAF0850AF0EDAC
:10200400A42AFDE82CF8E43DF97A257B00121B4F45
:10201400EA850882850983F074075AF87401B800C8
:10202400028004C333D8FCFBEA131313541FF8EEE5
:1020340028F8EF3400F9E8245DF582E91221035B06
:102044006003EA801CEE2436122100F5F0EA84A82D
:10205400F0EE28F8EF3400F9E82438F582E912218B
:1020640003F97F04021D6274F5121CB6EAFEEBFF4D
:10207400EE2434122100C0E0EE2435F582EF340062
:10208400F583D0E0F08E828F83A3A3A3A3A3E0FA09
:10209400A3E0FB8E828F83A3A3A3A3A3A3A3E0FC4B
:1020A400A3E0FDECC39AF50AED9BF50BEE247FF556
:1020B40008EF3400F509850882F583E06401702B8C
:1020C400EE2480F582EF3400F583121E7412210988
:1020D4007402121BF0E960137CDC7D04EEFAEFFB62
:1020E400120C61850882850983E4F0AC0AAD0BEE1D
:1020F400FAEFFB121FD412292F022066F582EF3467
:1021040000F583E022C082C083851882851983E0AC
:10211400F8A3E0F9C3EA9CEB9D5010C3EC98ED9949
:10212400401BC3EA98EB995014800EC3EA98EB99CC
:102134004007C3EC98ED994004790180027900D0FE
:1021440083D08222EAC39CFAEB9DFB2274ED121C1D
:10215400B69003A2E064086005E06407702C906107
:10216400C8E060269003D0E0F874FF68601CE8754E
:10217400F003A4C8AAF02AF974D228FE740339FF24
:102184008E828F83A3A3A3E0700579000222F0EE70
:102194002468F510EF3400F511906060E08510823A
:1021A400851183F0750A45750B05750800750900DE
:1021B400E5D914F50EE5D95403F50F601CEE24821D
:1021C400F50CEF3400F50D7403650F6058E50E60EF
:1021D40013EE2467122100700B793DEEFAEFFB1227
:1021E4000C8580A6900540E064016026850C8285FC
:1021F4000D83E06004780480027800850E08E50809
:10220400C398FA95E0FB120B058A088B09EA450985
:102214007006120EDD02218E850C82850D83E0701E
:10222400048A0A8B0B78008016E5D9C0E08812E591
:102234000A2512F582E50B3400F583D0E0F008E8B6
:10224400C3950E40E4850C82850D83E0602874FC00
:10225400250EF50E780A121E5DAC0EA90FEEFAEFEC
:10226400FB120D337402121BF0E9700AAA08AB09C1
:102274001212F10221DD7403650F6058850E0C758E
:102284000D00780C121E5DAC0AAD0BAA08AB091246
:102294000CF77402121BF0851082851183E0F87428
:1022A40080687005750C7F8002880CE50CF50A784F
:1022B4000A121E61E50FF50A780A121E61A90EAC16
:1022C40008AD099003D0E0FA7B0012099D74021254
:1022D4001BF080139003A2E06408600BAC0AAD0B02
:1022E400EEFAEFFB120DC9120EE979017F0C021D03
:1022F4006274F3121CB674FC121BDAEAFEEBFF895B
:1023040008A2AFE433F509C2AFEE2463F50AEF3453
:1023140000F50B8010AA0AAB0B120CAF1212F1904D
:1023240004E3E004F0850A82850B83E0F8A3E0F976
:10233400E849602FE82402FAE93400FBEA2402F5B4
:102344000CEB3400F50D780C121E5D8A828B83E051
:10235400FCA3E0F9EEFAEFFB120CA37402121BF0DB
:10236400E960B29004E3E060579004E4E0F890047C
:10237400E3E0C398500C7402650870449004E5E0EF
:10238400603E8E828F83A3A3A3A3E0851882851960
:10239400831223D47402121C26E81223D49004E27C
:1023A400E028F07402121C26AC82AD838518828565
:1023B4001983AA82AB8379011209A99004E3E4F09A
:1023C400E509A2E092AF7404121BF07F06021D62BD
:1023D400F0A3E4F09004E3E0F8220000852187856F
:1023E40022C622C0E074EF121DA2A2AFE433FEC2E3
:1023F400AF759B00906182E0A2E05012E591A2E0EB
:10240400500C7591FE740165217003122150E0A2F5
:10241400E55051E591A2E5504B7591DF9003A2E0A0
:1024240064076005E06408702374016521703579E0
:10243400019003D0E0FA75F003A4CAA8F028FB7455
:10244400D22AFA74033BFB1222F58018E0640D7063
:10245400139003C4E004F064287002E4F07A00E00E
:10246400F9120EEF906182E0A2E6400302250EE528
:1024740091A2E6400302250E7591BF9003A2E06489
:10248400057008120E0B120E178003120E1175211F
:1024940000120E7DE99003A3F07900120E71120B65
:1024A400CB7A017B009003A1E0F91212C19078036A
:1024B400E064427055900544E014F0704DC2AF12D0
:1024C40024C600782AD0E0F618D0E0F6E59F540739
:1024D40070057509FF800375097FC4C0E07829E69B
:1024E400F50808E65509F509740B7808121BB8D0ED
:1024F400E02508F8906270E0A2E740F8E8C3339062
:102504006272F0906270E0D2E0F0906181E0A2E348
:102514005009E5E9A2E3500375E9F7A3E0A2E75007
:1025240009E591A2E7500375917FEEA2E092AF7F97
:1025340004021E01C0E0C0D0C082C083906183E069
:10254400A2E05009E5BFA2E0500375BFFEE0A2E19E
:102554005009E5BFA2E1500375BFFDE0A2E25009B6
:10256400E5BFA2E2500375BFFBE0A2E35009E5BF5B
:10257400A2E3500375BFF7E0A2E45009E5BFA2E46B
:10258400500375BFEFE0A2E55009E5BFA2E5500393
:1025940075BFDFE0A2E65009E5BFA2E6500375BFB0
:1025A400BFD083D082D0D0D0E032C0E074F2121D0C
:1025B400A2E5A7A2E4500FE5A1A2E4500953A7EFB6
:1025C40075A1EF122602E5A7A2E5500CE5A1A2E54C
:1025D400500653A7DF75A1DFE5A7A2E15009E5A1E5
:1025E400A2E1500375A1FDE5A7A2E2500CE5A1A26A
:1025F400E2500653A7FB75A1FB7F01021E0174F88C
:10260400121CB67521019003A2E0640670077A00DB
:102614007B00120DF3A2AFE433FED2AF9003A8E027
:10262400640170187A207B009003A1E0F91213CFA3
:102634007A207B009003A1E0F91212C7906182E036
:10264400D2E6F0900541E0602185C6228016900311
:10265400A7E064017008E5C654F84405F5C653BE06
:10266400FC1223E07401652160E4EEA2E092AF7FE6
:1026740001021D628E238F24858228858327851875
:1026840082851983E0CEA3E0CF852882852783EB5A
:10269400C9EAC8EDCBECCA75F010C3E833C8E93316
:1026A400C9EA33CAEB33CBC3EA9EF526EB9FF52583
:1026B400B35004AB25AA26EC33CCED33CDD5F0DAF8
:1026C400AE23AF242274F1121CB68A088B098C0A3B
:1026D4008D0B9093307808121A6C740F121C2678A4
:1026E4000C121A92909330780C121A6C7808790CA8
:1026F40012155290932050107808790C121A4478CD
:10270400081215724014800E780C7908121A447855
:102714000C12157250047901800279007F08021DA1
:102724006274ED121CB68A088B098C0A8D0B909387
:10273400307808121A6C7413121C26780C121A9230
:10274400909330780C121A6C780C79081215524058
:10275400117808790C121A44AA08AB09AC0AAD0B1B
:102764008022751000751100751200751301781020
:10277400790C121A4478107908121A0BAA10AB11AA
:10278400AC12AD137F0C021D629093307808121ABC
:10279400928A828B837808121A7F7F04021D6274E6
:1027A400F5121CB68C828D837808121A928A828B59
:1027B400837808121A581227F7C3E098F0A3E09917
:1027C4001227E9401E9092E47808121A928A828BAA
:1027D400837808121A318E828F83E02420F0A3E0DC
:1027E400344EF080A4F08E828F83C3E09420A3E063
:1027F400944E22EA2404F8EB3400F9E8FEE9FF8C55
:10280400828D83A3A3A3A3E0F8A3E0F98E828F8330
:102814002274F5121CB6E9FE9004F7E0FAA3E0FB7B
:10282400EEC333F8E433F9740C28F582749039F567
:1028340083E02AF508A3E03BF5097808121E5D90B1
:102844009358121AB01226787402121BF08A088B5D
:10285400098C0A8D0B741078081219D3AA08AB09D5
:102864007F04021D6274F1121CB68A0C8B0D8C0E4F
:102874008D0F740F121C26E0FAA3E0FB7411121CD6
:1028840026E0F508A3E0F5097808121E5DEA2401A4
:10289400F508EB3400F509E4F50AF50B780C790832
:1028A4001218D090935C7808121A92780C79081256
:1028B40018D0AA0CAB0DAC0EAD0F12267874021210
:1028C4001BF08B09EA450960047A0180027A00EC66
:1028D4002AFCED3400FD7413121C26E0F8A3E0F981
:1028E400E8FEE9FFECF8EDF97A717B02121B4F88E0
:1028F400088909E4F50AF50B8E828F837808121A89
:10290400A1ECF8EDF97A717B02121B4F8A088B094E
:1029140074057808121BC78E828F83A3A3A3A3E533
:1029240008F0A3E509F07F08021D62C082C083E9B4
:10293400906000F0D083D08222C0E074F2121DA215
:10294400A2AFE433FED2AFC2C0E5D1A2E450065335
:10295400D1EF121231EEA2E092AF7F01021E01C04C
:10296400E0C0D0E8C0E0E9C0E0A9A8D2AFC2C7E99E
:10297400A2E7E433F8E9A2E792AFD0E0F9D0E0F8B7
:10298400D0D0D0E032C0E0C0D0E8C0E0E9C0E0EA96
:10299400C0E0EBC0E0C082C083A2AFE433FBD2AF9F
:1029A4009009B1E0FA9009B0E06A700A539AFB907A
:1029B40009B27401801FC2E9E0F8740128F0743090
:1029C40028F582E43409F583E0F5C19009B0E0C349
:1029D40094804002E4F090082D7401F09009B0E076
:1029E4006A7002D285EBA2E092AFD083D082D0E0AD
:1029F400FBD0E0FAD0E0F9D0E0F8D0D0D0E032C09B
:102A0400E074F2121DA2909304121E709009B6E0B5
:102A1400FAA3E0FB900D54E0F91213C37404121BE3
:102A2400F0758B00C2E87F01021E01C2AF020000F4
:102A34002200202020202020202020282828282888
:102A44002020202020202020202020202020202082
:102A540020208810101010101010101010101010DA
:102A640010100404040404040404040410101010DA
:102A74001010104141414141410101010101010195
:102A84000101010101010101010101010110101005
:102A94001010104242424242420202020202020268
:102AA40002020202020202020202020202101010D8
:022AB4001020F0
:102AB800FFFFFFFFFFFFFFFFC082C083E9900B4FBE
:102AC800F0D083D08202011F74F7121C4AEAFEEB91
:102AD800FF54806005EF64808035EEA2E050081254
:102AE8001441EE6401802654026008121447EE6413
:102AF80002801AEE5404600AC2AF75C9AB75C95B8F
:102B080080FEEE5408600B121453EE6408FAEFFBD3
:102B1800800CEE541060031214597A007B00022FC7
:102B2800DC74F0121C4A8A088B09890A750B007537
:102B38000EB9750F92750C03750D00780C121E5D99
:102B48007CCC7D9212127F7402121BF0E9701B7507
:102B58000C04780C121E5DAC0EAD0FAA08AB09125E
:102B6800127F7402121BF0E9602B750C04780C12AA
:102B78001E5DAC0EAD0FAA08AB0912127F740212CB
:102B88001BF0E96015AC0AE5082404FAE43509FBF2
:102B9800790112143B7900023DAAE5082403FEE4FA
:102BA8003509FF8007A3AE82AF83050B8E828F8322
:102BB800E0F8743D686006E870EB743DF0A80BC35C
:102BC800E498F895E0F9EE28FEEF39FFEE2405F5D4
:102BD8000EE43FF50F7508047509007808121E5DAC
:102BE8007CB47D92EEFAEFFB12127F7402121BF096
:102BF800E9600FAC0AAA0EAB0F790212143B7902F6
:102C08008095EE2406F508E43FF509780C121E5D60
:102C18007CAF7D92EEFAEFFB12127F7402121BF06A
:102C2800E96010AC0AAA08AB09790312143B7903CE
:102C3800022B9F750C03780C121E5D7CD87D92EEDA
:102C4800FAEFFB12127F7402121BF0E9600D122FCB
:102C580013790412143B7904022B9F780C121E5D21
:102C68007C007D93EEFAEFFB12127F7402121BF0C8
:102C7800E9600D122F13790512143B7905022B9F79
:102C8800750C05780C121E5D7C427D92EEFAEFFB06
:102C980012127F7402121BF0E96010AC0AAA08AB8A
:102CA80009790612143B7906022B9F750C04780CDF
:102CB800121E5D7C967D92EEFAEFFB12127F740273
:102CC800121BF0E96010AC0AAA0EAB0F79011214BE
:102CD8003B7901022B9F750C05780C121E5D7C4E0A
:102CE8007D92EEFAEFFB12127F7402121BF0E9607C
:102CF80010AC0AAA08AB09790712143B7907022B12
:102D08009F750C04780C121E5D7C917D92EEFAEF93
:102D1800FB12127F7402121BF0E96010AC0AAA0EB3
:102D2800AB0F790812143B7908022B9F750C0578B4
:102D38000C121E5D7C5A7D92EEFAEFFB12127F7424
:102D480002121BF0E96010AC0AAA08AB0979091253
:102D5800143B7909022B9F750C04780C121E5D7CBC
:102D68008C7D92EEFAEFFB12127F7402121BF0E9CF
:102D78006010AC0AAA0EAB0F790A12143B790A024A
:102D88002B9F750C05780C121E5D7C667D92EEFA01
:102D9800EFFB12127F7402121BF0E96010AC0AAA52
:102DA80008AB09790B12143B790B022B9F750C04A5
:102DB800780C121E5D7C7D7D92EEFAEFFB12127F7D
:102DC8007402121BF0E96010AC0AAA0EAB0F790C62
:102DD80012143B790C022B9F750C03780C121E5DA4
:102DE8007C347D93EEFAEFFB12127F7402121BF013
:102DF800E9600D122F13790D12143B790D022B9FE8
:102E0800750C07780C121E5D7CB67D91EEFAEFFB0F
:102E180012127F7402121BF0E96013AC0AEE240848
:102E2800FAE43FFB790E12143B790E022B9F750CC6
:102E380005780C121E5D7C6C7D92EEFAEFFB121287
:102E48007F7402121BF0E96010AC0AAA08AB09797A
:102E58000F12143B790F022B9F750C04780C121E6D
:102E68005D7C827D92EEFAEFFB12127F7402121BD8
:102E7800F0E96010AC0AAA0EAB0F791012143B7976
:102E880010022B9F750C05780C121E5D7C187D9224
:102E9800EEFAEFFB12127F7402121BF0E96010AC1D
:102EA8000AAA08AB09791112143B7911022B9F78F1
:102EB8000C121E5D7C607D92EEFAEFFB12127F749D
:102EC80002121BF0E96010AC0AAA08AB09791212C9
:102ED800143B7912022B9F750806750900780812B1
:102EE8001E5D7CDC7D91EEFAEFFB12127F740212FC
:102EF8001BF0E97003022B9DAC0AEE2407FAE43FAD
:102F0800FB791312143B7913022B9FAC0AEE2404AD
:102F1800FAE43FFB2274F7121C4AE9FFECFEEF12B9
:102F28001EA10112D72F772F542F5B2F622F692FE5
:102F3800702F7E2F852F8C2F932F9A2FA12FA82F9C
:102F4800AF2FB62FBD2FC42FCB2FD22FEEF91214CF
:102F58005F807CEEF91214658075EEF912146B80AF
:102F68006EEEF91214718067EEF91214778060EE34
:102F7800F912147D8059EEF91214838052EEF91279
:102F88001489804BEEF912148F8044EEF9121495CF
:102F9800803DEEF912149B8036EEF91214A1802FB1
:102FA800EEF91214A78028EEF91214AD8021EEF97B
:102FB8001214B3801AEEF91214B98013EEF9121430
:102FC800BF800CEEF91214C58005EEF91214CB80FF
:102FD80003121BF07F01021D1C74F6121C4A74F9BF
:102FE800121BDA9091E3AC18AD197407121AEDAC04
:102FF80018AD197A06798212139F8518828519836C
:10300800E070030230F37508047509007808121E91
:103018005D7C9B7D927402121C3812127F7402121E
:103028001BF0E96006900B717406F07808121E5DBB
:103038007CA07D927402121C3812127F7402121B3B
:10304800F0E96005900B71E4F07508057808121E28
:103058005D7C3C7D927402121C3812127F7402123D
:103068001BF0E96006900B717401F07808121E5D80
:103078007C367D927402121C3812127F7402121B65
:10308800F0E96006900B717402F07808121E5D7CFE
:10309800307D927402121C3812127F7402121BF0D7
:1030A800E96006900B717403F07508067808121E23
:1030B8005D7CEA7D917402121C3812127F74021230
:1030C8001BF0E96006900B717404F07808121E5D1D
:1030D8007CF17D917402121C3812127F7402121B4B
:1030E800F0E9600C900B7174058004900B71E4F0AA
:1030F800900B71E0F97A237B1412141D024D1C7495
:10310800F7121C4A74E6121BDA7E00908E68AC181F
:10311800AD19741A121AEDAC18AD19900B51E0FAEA
:10312800798112139F851882851983E0703B7CB6DC
:103138007D0D791E7A087B031213E1E9900B72F07A
:103148007CDB7D0D7A15790012076F900B72E0F920
:10315800741A022FD9EEF885188285198312323D28
:10316800C0E0123232D0E0F00E900B51E0F8EEC31E
:103178009840E21232421213E1E9900B72124E06A5
:103188007A15790012076F900B51E4F080BD74F73F
:10319800121C4A74E5121BDA7E00908E4E740112DE
:1031A8001C40741A121AED851882851983124E066E
:1031B8007A01798512139F7401121C408518828543
:1031C8001983E0FA798112139F7401121C26E070AA
:1031D8003A7CB67D0D791E7A087B031213E1E990DB
:1031E8000B73F07CDB7D0D7A15790012076F900B5D
:1031F80073E0F9741B022FD9EEF87401121C261221
:10320800323DC0E0123232D0E0F00E8518828519C6
:1032180083E0F8EEC39840E01232421213E1E990DD
:103228000B73F07401121C4080BD745428F582E4BD
:10323800340BF58322123B40E02274012E900B528E
:10324800F0A37409F07C527D0B74022EF97A087B86
:10325800032274F0121C4A74F3121BDA9092C3749E
:1032680004121C407405121AED740B121C267410FB
:10327800F0A3E4F07409121C267410F0A3E4F074AF
:1032880004121C407A04798412139F7404121C26B9
:10329800E07003023322F875F0E8A4C8AAF075F0CC
:1032A80003A42AF97405121C26E075F064A4FAAB8D
:1032B800F0E82AFAE93BFB7406121C2612343D7426
:1032C80007121C2612344C342FF509E4F50AF50BC5
:1032D80078081215AC90934C780C121A92780879E9
:1032E8000C1216EA7808121609851882851983E5E2
:1032F80008F0A3E509F0851882851983E0F8A3E0B2
:10330800F97402121C26E8F0A3E9124E0679027A33
:10331800117B031213E174028010740B121C4079A4
:10332800027A117B031213E17409121C4079027AA4
:10333800127B031213E17900740D023DA774F01299
:103348001C4A74FA121BDA90921EAC18AD19740656
:10335800121AEDAC18AD197A05798312139F8518E6
:1033680082851983E0700302340AF875F010A4C846
:10337800AAF075F027A42AF97401121C26E0FA7540
:10338800F0E8A4CAACF075F003A42CFBE82AFAE92B
:103398003BFB7402121C26E075F064A4F8A9F0EA5D
:1033A80028FAEB39FB7403121C2612343D740412FC
:1033B8001C2612344C34DCF509E4F50AF50B7808C0
:1033C8001215AC909344780C121A927808790C1262
:1033D80016EA7808121609AE08AF09EEFCEFFD7A76
:1033E800067B001205F5EEFCEFFD7A077B0012055F
:1033F800F5EEFCEFFD7A087B001205F5EEFCEFFD1B
:1034080080257CA07D007A067B001205F57CA07DD6
:10341800007A077B001205F57CA07D007A087B0006
:103428001205F57CA07D007A097B001205F579006C
:103438007406023DA7E075F00AA4F8A9F0EA28FA94
:10344800EB39FB22E0F8EA28F8E43BF9E824B0F588
:1034580008E92274F6121C4AE97ABE7B92603C7530
:1034680008047509007808121E5D7CBE7D927A8476
:103478007B0A12126D7402121BF079047A327B00F7
:103488001214EF124639121E5D7C007D007A847B8F
:103498000A1215317402121BF080097C047D007930
:1034A8000012121F024D2174F2121C4A74F9121BE9
:1034B800DA89089091FFAC18AD197407121AEDACAF
:1034C80018AD197A06798212139F85188285198397
:1034D800E064397012E47807F0A3D8FCAC18AD1991
:1034E8007A04798212139F851882851983E06434DF
:1034F8007012E47807F0A3D8FCAC18AD197A0479F7
:103508008212139F851882851983E070030235E6BD
:103518007CC67D91E508750A07750B00780A605B23
:10352800121E5D7A847B0A12126D7402121BF0AAB5
:1035380018AB191212678A0A8B0B780A121E5D746F
:1035480002121C407A8B7B0A12126D7402121BF055
:10355800AA18AB19121267750A02750B00780A12BD
:103568001E5D12364012126D7402121BF0AA18ABBF
:1035780019121267EA2409F902360B121E5D7A84C1
:103588007B0A12126D7402121BF0AA18AB191212E0
:10359800678A0A8B0B780A121E5D7402121C407A25
:1035A8008B7B0A12126D7402121BF0AA18AB191247
:1035B8001267750A02750B00780A121E5D123640F2
:1035C80012126D7402121BF0AA18AB191212678B33
:1035D8000BA90BEA2409123B52121243803A7A1CB7
:1035E8007B90E5086029750A0F750B00780A121E92
:1035F8005D7C1C7D907A847B0A12126D7402121B0A
:10360800F0790F7A327B001214EF12422980097C7C
:103618000F7D00790012121F750AC8750B00780A11
:10362800121E5D7C007D007A847B0A1215317402BB
:10363800121BF07900023B5B7C667D93748B2AFA3F
:10364800740A3BFB2274F2121C4A74F9121BDAEA60
:10365800FEEBFF8908121267EA900B50F09091F880
:10366800AC18AD197407121AEDAC18AD197A0679B1
:103678008212139F900B4DE4F0750A04F50B780A3B
:10368800121E5DEEFCEFFD7A9B7B9212127F740294
:10369800121BF0E9600302373D780A121E5DEEFC4A
:1036A800EFFD7AA07B9212127F7402121BF0E96080
:1036B8000302373D750A05780A121E5DEEFCEFFD20
:1036C8007A3C7B9212127F7402121BF0E9706678C2
:1036D8000A121E5DEEFCEFFD7A367B9212127F74A1
:1036E80002121BF0E9704E780A121E5DEEFCEFFD27
:1036F8007A307B9212127F7402121BF0E9703675D1
:103708000A06780A121E5DEEFCEFFD7AEA7B91123A
:10371800127F7402121BF0E9701B780A121E5DEE0C
:10372800FCEFFD7AF17B9112127F7402121BF0E913
:10373800700302386BEEFAEFFB1212678A0A8B0BE2
:10374800780A121E5DEEFCEFFD7402121C3812128C
:103758007F7402121BF0E97010EEFAEFFB12126789
:10376800EEFCEFFD7982121399750A66750B937C4E
:10377800C67D91E508750C07750D00780C60671219
:103788001E5D7A847B0A12126D7402121BF0EEFA27
:10379800EFFB1212678A0C8B0D780C121E5DEEFC83
:1037A800EFFD7A8B7B0A12126D7402121BF0EEFA8F
:1037B800EFFB121267750C02750D00780C121E5D76
:1037C800AC0AAD0B12364412126D7402121BF0EEE5
:1037D800FAEFFB121267EA2409F97A327B00121415
:1037E800EF1242298064121E5D7A847B0A12126DE0
:1037F8007402121BF0EEFAEFFB1212678A0C8B0DA3
:10380800780C121E5DEEFCEFFD7A8B7B0A12126DAE
:103818007402121BF0EEFAEFFB121267750C0275B8
:103828000D00780C121E5DAC0AAD0B123644121254
:103838006D7402121BF0EEFAEFFB1212678B0BA9E4
:103848000BEA2409123B52121243909338121E704D
:103858007A017B00900B4FE0F91213C37404121B1A
:10386800F080377AFD7B90E5086026750A0C780AA7
:10387800121E5D7CFD7D907A847B0A12126D7402A3
:10388800121BF0790C7A327B001214EF1242298055
:10389800097C0C7D00790012121F750AC8750B008F
:1038A800780A121E5D7C007D007A847B0A1215312D
:1038B8007402121BF0023B5B74F6121C4AE9FE907C
:1038C8000B4DE4F07A04FB900B4FE0F91212C17A29
:1038D8007A7B91EE60297508087509007808121E30
:1038E8005D7C7A7D917A847B0A12126D7402121BB8
:1038F800F079087A327B001214EF12422980097C91
:10390800087D00790012121F7508C875090078082B
:10391800121E5D7C007D007A847B0A1215317402C8
:10392800024D1E74F2121C4A74CB121BDA890890DD
:103938008E9C741B121C40741A121AED908EB604D9
:10394800121C40741A121AED750900AC18AD197AD8
:1039580001798512139F741B121C408518828519E2
:1039680083E0FA798112139F7C8C7D91741B121C61
:1039780026E07070E508750A08750B00780A700370
:10398800023AC2121E5D7A847B0A12126D74021208
:103998001BF07ADB7B0D1212678A0A8B0B780A12EE
:1039A8001E5D7CDB7D0D7A8C7B0A12126D7402120F
:1039B8001BF07ADB7B0D121267750A02750B007813
:1039C8000A121E5D12443B12126D7402121BF07A29
:1039D800DB7B0D807BC0E07401121C26123B40D0BB
:1039E800E0F00509A809741B121C2612323D70E587
:1039F800E508750A08750B00780A6068121E5D7A7A
:103A0800847B0A12126D7402121BF07401121C38A6
:103A18001212678A0A8B0B780A121E5D7403121C35
:103A2800407A8C7B0A12126D7402121BF074011218
:103A38001C38121267750A02750B00780A121E5D8F
:103A480012443B12126D7402121BF07401121C38DE
:103A5800121267EA240AF97A327B001214EF124232
:103A680029023B1F121E5D7A847B0A12126D7402B2
:103A7800121BF07401121C381212678A0A8B0B7819
:103A88000A121E5D7403121C407A8C7B0A12126D96
:103A98007402121BF07401121C38121267750A02A4
:103AA800750B00780A121E5D12443B12126D7402E7
:103AB800121BF07401121C388050121E5D7A847B30
:103AC8000A12126D7402121BF07ADB7B0D12126758
:103AD8008A0A8B0B780A121E5D7CDB7D0D7A8C7B43
:103AE8000A12126D7402121BF07ADB7B0D12126738
:103AF800750A02750B00780A121E5D12443B1212F9
:103B08006D7402121BF07ADB7B0D1212678B0BA906
:103B18000B123B4F121243750AC8750B00780A1234
:103B28001E5D7C007D007A847B0A121531740212B6
:103B38001BF079007435801DE58228F582E4358311
:103B4800F583228B09A909EA240AFCE439FD7A8461
:103B58007B0A227407121BF07F06021D1C74F012E8
:103B68001C4A74FF121BDA124462121267EA900BA5
:103B780051F07C517D0B7A017985121399900B4D88
:103B8800E4F0900B51E0C3941B40397AD37B9085C5
:103B98001882851983E0602075080D75090078087A
:103BA800121E5D7CD37D907A847B0A12126D74029A
:103BB800121BF0790D023CCA7C0D7D0079001212AF
:103BC8001F023D8AE07003023D8AEEFCEFFDE0FA39
:103BD8007981121399909338121E707A027B0090A3
:103BE8000B4FE0F91213C37404121BF0750E8C7599
:103BF8000F91750866750993750AA5750B927CB9BE
:103C08007D92851882851983E0750C04750D0078FE
:103C18000C7003023CD7121E5DEE24FCFAEF34FF51
:103C2800FB12127F7402121BF0E96046780C121E18
:103C38005DAC0AAD0B7A847B0A12126D7402121BFA
:103C4800F0123DAF121E5DEEFCEFFD7A887B0A1282
:103C5800126D7402121BF0750A02780A121E5D12A8
:103C68003DCD12126D7402121BF0900B51E0240628
:103C7800804F750A08750B00780A121E5DAC0EADF0
:103C88000F7A847B0A12126D7402121BF0900B518A
:103C9800E0F50A780A121E5DEEFCEFFD7A8C7B0ACD
:103CA80012126D7402121BF0750A02780A121E5D58
:103CB800123DBB12126D7402121BF0900B51E024DE
:103CC8000AF97A327B001214EF124229023D8A1255
:103CD8001E5D7A847B0A12127F7402121BF0E9605F
:103CE80046780C121E5DAC0AAD0B7A847B0A121260
:103CF8006D7402121BF0123DAF121E5DEEFCEFFD5B
:103D08007A887B0A12126D7402121BF0750A027807
:103D18000A121E5D123DCD12126D7402121BF09034
:103D28000B51E02406804F750A08750B00780A12BB
:103D38001E5DAC0EAD0F7A847B0A12126D740212EE
:103D48001BF0900B51E0F50A780A121E5DEEFCEFAD
:103D5800FD7A8C7B0A12126D7402121BF0750A022E
:103D6800780A121E5D123DBB12126D7402121BF00E
:103D7800900B51E0240AFCE43400FD7A847B0A129B
:103D880012437508C87509007808121E5D7C007D0D
:103D9800007A847B0A1215317402121BF074011226
:103DA8001BF07F08021D1C900B51E0F50A750B00F3
:103DB800780A22AC08AD09900B51E0F8748C28FA07
:103DC800E4340AFB22AC08AD09900B51E0F8748882
:103DD80028FAE4340AFB2274F4121C4A74FA121BFF
:103DE800DA890890922AAC18AD197406121AEDAC4B
:103DF80018AD197A05798312139F8518828519835E
:103E0800E07003023EA57C717D91E508750A08758E
:103E18000B00780A603A121E5D7A847B0A12126DD2
:103E28007402121BF0750A05780A121E5D740212DC
:103E38001C407A8C7B0A12126D7402121BF0750AF0
:103E480002780A121E5D7C667D937A917B0A8068EF
:103E5800121E5D7A847B0A12126D7402121BF075B1
:103E68000A05780A121E5D7402121C407A8C7B0ABD
:103E780012126D7402121BF0750A02780A121E5D86
:103E88007C667D937A917B0A12126D7402121BF084
:103E98007C0F7D007A847B0A121243803A7A2C7B4D
:103EA80090E5086029750A0F750B00780A121E5DE7
:103EB8007C2C7D907A847B0A12126D7402121BF09E
:103EC800790F7A327B001214EF12422980097C0F95
:103ED8007D00790012121F750AC8750B00780A1246
:103EE8001E5D7C007D007A847B0A121531740212F3
:103EF8001BF07406024B0774F0121C4A74F7121B6D
:103F0800DA1244629092547403121C407406121A16
:103F1800ED900B4DF004121C2674E1F0A37490F0A0
:103F28001212678A08740565084B60030240A4EE04
:103F3800FAEFFB12152B12442C121591909344782A
:103F480008121A92780C79081216EA780C121609D7
:103F5800E50C24E0F8E50D34FFF9C3E894E1E994B1
:103F68003F400302407C7403121C407A0579831297
:103F7800139F7508057509007808121E5D740512EF
:103F88001C40EEFAEFFB12127F7402121BF0E9706C
:103F980017EEFCEFFD7A0579831213997A107B00EE
:103FA800900B4FE0F91212C17508667509937C7180
:103FB8007D91124448605E121E5D7A847B0A12125B
:103FC8006D7402121BF0EEFAEFFB1212678A0A8B6D
:103FD8000B780A121E5DEEFCEFFD7A8C7B0A12123A
:103FE8006D7402121BF0EEFAEFFB121267750A02EB
:103FF800750B00780A121E5DAC08AD0912443F1219
:10400800126D7402121BF0EEFAEFFB121267EA242B
:104018000AF90240CA121E5D7A847B0A12126D7474
:1040280002121BF0EEFAEFFB1212678A0A8B0B786A
:104038000A121E5DEEFCEFFD7A8C7B0A12126D747B
:1040480002121BF0EEFAEFFB121267750A02750BEB
:1040580000780A121E5DAC08AD0912443F12126DB9
:104068007402121BF0EEFAEFFB121267123B4B12AE
:104078001243806D851882851983E0605175080D9B
:104088007509007808121E5D7403121C2612445824
:1040980012126D7402121BF0790D80268518828524
:1040A8001983E0602975080D7509007808121E5DEE
:1040B8007403121C2612445812126D7402121BF05B
:1040C800790C7A327B001214EF12422980137C0D8E
:1040D8007D007401121C26E0FAA3E0FB790012129D
:1040E8001F7508C87509007808121E5D7C007D00E0
:1040F8007A847B0A1215317402121BF07409023D8E
:10410800A774F4121C4A74FB121BDA890890928770
:10411800AC18AD197405121AEDAC18AD197A0479FA
:104128008412139F851882851983E070030241CF9A
:104138007C957D91E508750A08750B00780A603A48
:10414800121E5D7A847B0A12126D7402121BF075BE
:104158000A04780A121E5D7402121C407A8C7B0ACB
:1041680012126D7402121BF0750A02780A121E5D93
:104178007C667D937A907B0A8068121E5D7A847BC8
:104188000A12126D7402121BF0750A04780A121EC4
:104198005D7402121C407A8C7B0A12126D74021232
:1041A8001BF0750A02780A121E5D7C667D937A9070
:1041B8007B0A12126D7402121BF07C0E7D007A8449
:1041C8007B0A121243803A7A9A7B90E50860297537
:1041D8000A0E750B00780A121E5D7C9A7D907A840F
:1041E8007B0A12126D7402121BF0790E7A327B0070
:1041F8001214EF12422980097C0E7D0079001212F8
:104208001F750AC8750B00780A121E5D7C007D00B8
:104218007A847B0A1215317402121BF07405024B62
:104228000712422D22900D847484F0A3740AF09032
:104238000B4DE4F02274F0121C4A74F8121BDA12C7
:1042480044629092AA7403121C407405121AED90ED
:104258000B4DF004121C2674EFF0A37490F01212A8
:10426800678A08740465084B60030243E2EEFAEFBC
:10427800FB12152B12442C12159190934C780812AE
:104288001A92780C79081216EA780C121609E50CBD
:1042980024FAF8E50D34FFF9C3E8947BE9940C405F
:1042A800030243BA7403121C407A04798412139FE0
:1042B8007508047509007808121E5D7405121C4003
:1042C800EEFAEFFB12127F7402121BF0E97017EE80
:1042D800FCEFFD7A0479841213997A087B00900B1D
:1042E8004FE0F91212C17508667509937C957D91A6
:1042F800124448605E121E5D7A847B0A12126D7445
:1043080002121BF0EEFAEFFB1212678A0A8B0B7887
:104318000A121E5DEEFCEFFD7A8C7B0A12126D7498
:1043280002121BF0EEFAEFFB121267750A02750B08
:1043380000780A121E5DAC08AD0912443F12126DD6
:104348007402121BF0EEFAEFFB121267EA240AF964
:10435800024408121E5D7A847B0A12126D740212DE
:104368001BF0EEFAEFFB1212678A0A8B0B780A121F
:104378001E5DEEFCEFFD7A8C7B0A12126D74021240
:104388001BF0EEFAEFFB121267750A02750B007844
:104398000A121E5DAC08AD0912443F12126D740278
:1043A800121BF0EEFAEFFB121267123B4B1212438C
:1043B800806D851882851983E0605175080D75092F
:1043C800007808121E5D7403121C2612445812123B
:1043D8006D7402121BF0790D802685188285198369
:1043E800E0602975080D7509007808121E5D7403D0
:1043F800121C2612445812126D7402121BF0790C0A
:104408007A327B001214EF12422980137C0D7D0052
:104418007401121C26E0FAA3E0FB790012121F7443
:1044280008023DA78A0CEBF50D3395E0F50EF50F64
:10443800780C227C667D93748C2AFA740A3BFB22E2
:10444800851882851983E0750A08750B00780A2299
:10445800E0FCA3E0FD7A847B0A22E98518828519AD
:1044680083F0EAFEEBFF2274F6121C4A74FF121B5B
:10447800DAE9FE900B4DE4F08518828519837409FA
:10448800F07C957D0DFA79811213997C9F7D0D7AC8
:104498000679821213997CA47D0D7A05798312130B
:1044A800997CAA7D0D7A047984121399AC18AD19F8
:1044B8007A017985121399909338121E707A047BC9
:1044C80000900B4FE0F91213C37404121BF07C74B4
:1044D8007D0B7A0179871213997CAF7D0D7A067965
:1044E800861213997A3C7B91EE602975080A750942
:1044F800007808121E5D7C3C7D917A847B0A12123A
:104508006D7402121BF0790A7A327B001214EF12D2
:10451800422980097C0A7D00790012121F7508C89B
:104528007509007808121E5D7C007D007A847B0A7C
:104538001215317402121BF07401024D1E74F6122A
:104548001C4A74F9121BDAE9FE90780EE08518828D
:10455800851983F090780FE0C0E07401121C26D012
:10456800E0F0907810E0C0E07402121C26D0E0F071
:10457800907811E0C0E07403121C26D0E0F0907827
:1045880012E0C0E07404121C26D0E0F0907813E02A
:10459800C0E07405121C26D0E0F07AA67B91EE608C
:1045A8005E7508077509007808121E5D7CA67D9166
:1045B8007A847B0A12126D7402121BF0AA18AB19C6
:1045C8001214E975080C7808121E5DEA2402FCE44E
:1045D8003BFD7A8B7B0A12126D7402121BF0791361
:1045E8007A327B001214EF124639121E5D7C007D70
:1045F800007A847B0A1215317402121BF0802F7C1A
:10460800077D00790012121FAA18AB191214E98B42
:1046180009A9097C0C7D00EA2402FAE439FB12128C
:10462800437C027D007A667B93790012121F024D4B
:104638001C12422D7508C878082274F4121C4AE925
:10464800606C7508047509007808121E5D7C787D19
:10465800927A847B0A12126D7402121BF07A867B9E
:104668000D1212678A088B097808121E5D7C867DF8
:104678000D7A887B0A12126D7402121BF07A867BFF
:104688000D121267EA2404F97A327B001214EF1231
:1046980042297508C8F5097808121E5D7C007D005E
:1046A8007A847B0A1215317402121BF080187C0779
:1046B8007D007A9E7B91790012121F7C0D7D007A15
:1046C800867B0D121243024B0A74F0121C4A74F1D5
:1046D800121BDA1244629091CE7401121C407407C6
:1046E800121AED9091D57407121AED900B4DF075D2
:1046F8000806F5097808121E5DEEFCEFFD7403123A
:104708001C3812126D7402121BF07401121C26E080
:10471800124901121A927808790C1218D0740212F0
:104728001C2612497D121A0B7403121C26124942C8
:10473800121A0B7404121C26124930121A0B740533
:10474800121C2612491E121A0B7406121C26124934
:1047580017121A0B758393758258780812157250C0
:104768000302488B7408121C407A06798612139F3C
:104778007508067509007808121E5D740A121C4037
:10478800EEFAEFFB12127F7402121BF0E9700BEEC7
:10479800FCEFFD7A067986121399750866750993F8
:1047A8007C307D91851882851983E0750A0B750B1D
:1047B80000780A6063121E5D7A847B0A12126D7497
:1047C80002121BF0EEFAEFFB1212678A0A8B0B78C3
:1047D8000A121E5DEEFCEFFD7A8F7B0A12126D74D1
:1047E80002121BF0EEFAEFFB121267750A02750B44
:1047F80000780A121E5DAC08AD09748F2AFA740A93
:104808003BFB12126D7402121BF0EEFAEFFB121250
:1048180067EA240DF90248B5121E5D7A847B0A12F4
:10482800126D7402121BF0EEFAEFFB1212678A0A7D
:104838008B0B780A121E5DEEFCEFFD7A8F7B0A1255
:10484800126D7402121BF0EEFAEFFB121267750A72
:1048580002750B00780A121E5DAC08AD09748F2A28
:10486800FA740A3BFB12126D7402121BF0EEFAEF97
:10487800FB1212678B09A909EA240D123B52121286
:1048880043803F7ADA7B8F851882851983E0602917
:104898007508107509007808121E5D7CDA7D8F7A1C
:1048A800847B0A12126D7402121BF079107A327B23
:1048B800001214EF12422980097C107D0079001241
:1048C800121F909338121E707A047B00900B4FE0F1
:1048D800F91213C37404121BF07508C8750900781F
:1048E80008121E5D7C007D007A847B0A12153174E3
:1048F80002121BF0740F023DA724D0F508E434FF20
:10490800F5093395E0F50AF50B90933C780C2212E3
:10491800496212496F2212495A75F00AA4F50CA887
:10492800F075F00A12496B2212495A75F064A4F521
:104938000CA8F075F06412496B2212495A75F0E818
:10494800A4C50CA8F075F003A428F875F0E812497E
:104958006B22124962F50DE50C22E024D0F50CE437
:1049680034FF22E50DA428F50D3395E0F50EF50F7B
:104978007808790C2212495A75F010A4C50CA8F0D1
:1049880075F027A428F875F01012496B2274F412F8
:104998001C4A74FE121BDAEAFEEBFF890890937C2E
:1049A800AC18AD197402121AED750A03F50B780AE2
:1049B800121E5D7C507D9312127F7402121BF0E967
:1049C8006038124DFEFA7987121399790012097F1F
:1049D8007A527B91E508601D750A0A780A121E5DF5
:1049E8007C527D917A847B0A12126D7402121BF03C
:1049F800790A024AA97C0A024AFE750A02780A1252
:104A08001E5D7C6C7D93EEFAEFFB12127F7402122E
:104A18001BF0E9603C8518828519837402124B0FDC
:104A2800121399790112097F7A677B91E508601C56
:104A3800750A09780A121E5D7C677D917A847B0A63
:104A480012126D7402121BF0790980557C09024A12
:104A5800FE750A01780A121E5D7C767D93EEFAEFE8
:104A6800FB12127F7402121BF0E9605A85188285C6
:104A780019837403124B0F121399790212097F7A62
:104A8800837B91E508603B750A08780A121E5D7CF5
:104A9800837D917A847B0A12126D7402121BF0795D
:104AA800087A327B001214EF124C65780A121E5DE8
:104AB8007C007D007A847B0A1215317402121BF087
:104AC800803B7C0880307AA97B90E5086026750ACF
:104AD8000D780A121E5D7CA97D907A847B0A1212D9
:104AE8006D7402121BF0790D7A327B001214EF12EA
:104AF800422980097C0D7D00790012121F74021270
:104B08001BF07F04021D1CF0AC18AD197A017987DF
:104B18002274F2121C4A74FE121BDA8908909374EC
:104B2800AC18AD197402121AEDAC18AD197A0179E6
:104B38008712139F750A5D750B917A247B91E5089E
:104B48008518828519837003024C22E06401703A4B
:104B5800750C0B750D00780C121E5D7C247D917A06
:104B6800847B0A12126D7402121BF0790B7A327B65
:104B7800001214EF124C6C121E5D7C007D007A84CA
:104B88007B0A1215317402121BF08518828519836D
:104B9800E06402703A750C0A750D00780C121E5DFF
:104BA8007C477D917A847B0A12126D7402121BF085
:104BB800790A7A327B001214EF124C6C121E5D7C5B
:104BC800007D007A847B0A1215317402121BF0856D
:104BD8001882851983E06403707E750C09750D00D1
:104BE800780C121E5DAC0AAD0B7A847B0A12126D2A
:104BF8007402121BF079097A327B001214EF124CFE
:104C080065F50B780A121E5D7C007D007A847B0AAC
:104C18001215317402121BF0803EE0640170097CA9
:104C28000B7D00790012121F851882851983E064B4
:104C380002700D7C0A7D007A477B91790012121F61
:104C4800851882851983E06403700D7C097D00AAAC
:104C58000AAB0B790012121F7402023B5D12422D3F
:104C6800750AC82212422D750CC8780C2274F612E7
:104C78001C4A74FF121BDAE9FEAC18AD197A057BE1
:104C8800031213E7851882851983E07038A29640CD
:104C9800187AC97B8FEE607075081075090078085E
:104CA800121E5D7CC97D8F80327A717B8FEE601118
:104CB8007508117509007808121E5D7C717D8F805A
:104CC8001A7C1180457AA77B8FEE603C75081075B9
:104CD80009007808121E5D7CA77D8F7A847B0A12F2
:104CE800126D7402121BF079107A327B001214EFE5
:104CF800124639121E5D7C007D007A847B0A1215EB
:104D0800317402121BF080097C107D0079001212A8
:104D18001F0245407407121BF07F02021D1C74F627
:104D2800121C4A74FE121BDAE9FE7401121C407A46
:104D3800057B031213E77401121C26E0700B124D59
:104D4800FEF97A057B031213E17A7C7B90EE6029E9
:104D580075080E7509007808121E5D7C7C7D907AB6
:104D6800847B0A12126D7402121BF0790E7A327B60
:104D7800001214EF12422980097C0E7D007900127E
:104D8800121F02392674F6121C4A74FE121BDAE945
:104D9800FE7401121C407A057B031213E77401129A
:104DA8001C26E064017013851882851983E4124E6D
:104DB8000679017A057B031213E17AFC7B8FEE609A
:104DC8002975080F7509007808121E5D7CFC7D8F17
:104DD8007A847B0A12126D7402121BF0790F7A32F0
:104DE8007B001214EF12422980097C0F7D007900A4
:104DF80012121F0239268518828519837401F0ACB6
:104E080018AD1922C082C083E9900C63F002509B50
:104E180074F7121C4AE99002E1F07C197D037AFFCD
:104E28007BFF1208EF9002E274FFF0A3F0A3E4F016
:104E3800A3F079051208779002E1E0F91207997A50
:104E48000D7B09120AB77F01021D1C74F4121C4A5B
:104E58008A088B09EB548060309002E1E0F9121265
:104E6800A98A0A8B0BAE0AAF0BEE4F60138E828FA6
:104E780083E064B0700312088FEEFAEFFB1212970A
:104E8800AA08E5096480FB80047A007B0002506A66
:104E980074F2121C4A74FC121BDAEAFEEBFFEE4FA6
:104EA80060387402121C26EEF0A3EF1252CFECF019
:104EB800A3ED1252CFAA82AB83120793E9F50870CB
:104EC800737412121C26125E83E50A450B60658E08
:104ED800828F83124F46EE4F700575080280557A0F
:104EE800067B0012132D8A0C8B0DA80CA90DE8491E
:104EF8007005750813803D88828983E4124F50A39A
:104F0800A3EEF0A3EF12631CE50AF0A3E50BF09003
:104F180002E7124FD89002E76017E0FCA3E0800395
:104F2800EAFCEBFD8C828D83124FD870F38C828D56
:104F380083125DA8A9087404121BF002651EA3A3BE
:104F4800A3A3E0FEA3E0FF22F0A3F08882898322D6
:104F580074F2121C4A890AE975F017A4FEAFF090A2
:104F680002E6E4F09002E4124FD8600A121333907C
:104F780002E4E4F0A3F0EEFAEFFB12132D8A088B9B
:104F880009EA4509602FEEFCEFFD790012128590C1
:104F980002E4E508F0A3E509F07B008008124FC29F
:104FA800E4F0A3F00BEBC3950A40F2E50A9002E6A1
:104FB800F079008002791302651EEB75F017A4F8EA
:104FC800A9F09002E4E028FAA3E0398A82F5832266
:104FD800125B3EEA4B2274F4121C4A7508007509EC
:104FE80000740C121C261262F0FEE9FF800CE50822
:104FF8002401F508E5093400F509C3E5089CE5092D
:105008009D503285080A85090B7403780A121BC75C
:10501800EA250AF8EB350BF988828983A3A3A3A3B1
:10502800A3A3125E83EE650A7003EF650B70BFE8F9
:10503800FAE9FB80047A007B00802774F4121C4A8A
:105048007900EAA2E0501B75080C750992780812DD
:105058001E5D7C047D007A657B0C12087174021257
:105068001BF07F04021D1CC082C0839002E712500F
:10507800A2601C88828983A3A3E06A7003A3E06B03
:105088008882898370E8A3A3A3A3125B3A80047A79
:10509800007B00D083D08202011F1265F1E849220B
:1050A80074EE121C4A74FC121BDAEAFEEBFF851838
:1050B80082851983E4F0A3F0EE2402125D8CEE24BD
:1050C800051252BDEE2404F50EEF1256A2E024FE9E
:1050D800603924FC604624FE605224FE605E24FE93
:1050E80070030251C224FE700302523A24FE700378
:1050F80002524924FE700302525824FC70030252E3
:105108006724FE70030252760252B39003007417AC
:10511800F0A3E41252D71205110252B38518828502
:105128001983AC82AD831208950252838518828553
:105138001983AC82AD8312089B025283850C0885C3
:105148000D097402121C26AC82AD8385088285097C
:1051580083125B3A1207B78A0C8B0DAC0CAD0DECC1
:105168004D6042E4F50CF50D780C121E5D750C00CF
:10517800750D03780C121E5D750C01750D03780C06
:10518800121E5D7408121C26121E747916125B34E6
:105198001208D77408121BF0E9F50C700B125B307B
:1051A800120529800F750C01850882850983125222
:1051B800C5125DA8850C080252867402121C26AC22
:1051C80082AD83850C82850D83125B3A1207B78AFC
:1051D800108B11AC10AD11EC4D6043850C82850D20
:1051E80083A3A3121E747510007511037810121E84
:1051F8005D7510017511037810121E5D7408121C7C
:1052080026121E747916125B341208D77408121B02
:10521800F0E9F509700B125B3012052F800F750944
:1052280001850C82850D831252C5125DA885090877
:10523800804C851882851983AC82AD831208A180C1
:105248003A851882851983AC82AD831208A7802B12
:10525800851882851983AC82AD831208AD801C85C0
:105268001882851983AC82AD831208B3800D851826
:1052780082851983AC82AD831208B9E9F508E5087F
:1052880060298E828F83A3E06414601F850E828557
:105298000F83E09003001252CF1265ED90030112C4
:1052A8005DA8E508A31252D712050BEEFAEFFB1220
:1052B8000835025C94F50CEF3400F50D221265F107
:1052C80085188285198322F085188285198322F032
:1052D8007C007D03850A82850B83125B3E2274EE77
:1052E800121C4A74FC121BDA8A0A8B0B8C0E8D0F67
:1052F800EA2405F508EB3400F5097C157D007900F2
:105308007A007B03121285E5082402F50CE50912E0
:1053180052C085188285198385821085831178107B
:10532800121E5D850882850983A3A3A3A31257EAE9
:10533800121E5DE5082405F510E5093400F511781D
:1053480010121E5D850C82850D83125B441207B115
:105358007406121BF08A108B11AE10AF11E50A24E7
:1053680002F50AE50B125D8FEE4F70030254AC8014
:10537800177402121C26125B3A88828983EAF0A30A
:10538800EBF0900300E004F0900300E0C3940540C4
:10539800030254ACE4F510F5117810121E5D751077
:1053A800E97511027810121E5D7510EA7511027800
:1053B80010121E5D7406121C26121E747910EEFC63
:1053C800EFFD125B341208D77408121BF0E9705E07
:1053D800850882850983A3A3A3A3A3A3A3E0F890C8
:1053E80002E9E06870481257EA121E5D7CEA7D0205
:1053F800E5082408FAE5093400FB12127F7402124A
:105408001BF0E960298E828F83A3A3A3A3125B3AC2
:10541800900300E0F51074027810121BC774012580
:1054280010F58274033511F583EAF0A3EBF07402EA
:10543800121C268582108583117810121E5D740255
:10544800121C26121E74850C82850D8312660212A8
:1054580007BD7404121BF08A108B11AE10AF1190A7
:105468000300E0F51075110074027810121BC77460
:10547800002510F874033511F988828983A3124F27
:10548800D87003025370E82403F8E93400F9EE4FAA
:1054980060030253798882898374FFF0A3F0900334
:1054A80000E004F0900300E0600A125B3012051D72
:1054B8007900800B850882850983125D9F790A022D
:1054C8005C9474EA121C4A74FE121BDA8C128D1357
:1054D800EA2405F50CEB12676C124F4A7508007543
:1054E8000900EA2402F510EB3400F51185188285CD
:1054F800198385820A85830B780A121E5D850C82C2
:10550800850D83A3A3A3A31256AC121E5DE50C243C
:1055180005F50AE50D125D8F780A121E5D850C826D
:10552800850D831266001207B17406121BF08A0AF1
:105538008B0BEA450B700302565DEA2404F50EEB6B
:105548001256A2124F4A8A828B83A3A3A3E0F9853D
:105558001082851183125B3A12079FE9F5096003EF
:1055680002565DE4F514F5157814121E5D7514E9FC
:105578007515027814121E5D7514EA7515027814F3
:10558800121E5D7406121C26121E747913AC0AAD25
:105598000B851082851183125B3A1208D7740812A2
:1055A8001BF0E9F509600302565D9002E9E0F8E5B1
:1055B800087009E02402900301F08017900301E0CD
:1055C800FCE82402FAE43400FBEA6C7001EB6003A7
:1055D800025661850882AA821257E194141257D99B
:1055E8005073850E82850F83E0C0E074022A12563C
:1055F80099D0E0F00508850E82850F83A3E0C0E00E
:1056080085080A7402250A125699D0E0F005089018
:1056180002E91256AC121E5D7CEA7D0285080A7406
:1056280002250AFA74033400FB12126D7402121B6D
:10563800F09002E9E02508F50874FF6E700374FF26
:105648006F6012EE24010EEF3400FFE508C39414D6
:1056580050030254F4E5086013125A258510828518
:105668001183125B3A12052379008014E50970034F
:1056780075090A851282851383EEF0A3EFF0A90954
:105688007402121BF07F0E021D1C85080C74022583
:105698000CF58274033400F583223400F50F850E6F
:1056A80082F5832212632F2274EE121C4A74FE12B2
:1056B8001BDA8C0E8D0FEA2405F50CEB1252C0751F
:1056C8000B00900300E4F0F50AEA2402F508EB3435
:1056D80000F5098049900300E0FA9002E9E0F81229
:1056E80057E194171257D9400D900300E0F874164B
:1056F800C3989002E9F01257EA121E5D7CEA7D0217
:1057080074012AFA74033400FB12126D7402121B1E
:10571800F09002E9E0F8900300E028F0050AE50CB3
:105728002416F582E50D12569DE0F8E50AC3984067
:10573800030257C2900300E0C39416507DE50AC3E4
:1057480033F8E433F9E50C28FEE50D39FF851882B6
:10575800851983AC82AD838E828F83125B3A1207E0
:10576800B78A108B11AC10AD11EC4D7005750B019B
:105778008043E4F510F5117810121E5D7510E97577
:1057880011027810121E5D7510EA75110278101258
:105798001E5D7406121C26121E74791685088285F1
:1057A8000983125B3A1208D77408121BF0E9F50B4B
:1057B80070030256DD125D9B80107C007D03850816
:1057C80082850983125B3A120535A90B7402025CC3
:1057D80096E99400C365D03322EA28F8E43400F946
:1057E800E822E0F51075110078102274EA121C4ABC
:1057F80074FC121BDA8A0C8B0D8C128D13EA2405AB
:10580800F50AEB125D8F750800750900E50A240298
:10581800F510E50B3400F5117402121C2685820E72
:1058280085830F780E121E5D850A82850B83A3A3DC
:10583800A3A31262DB121E5DE50A2405F50EE50B33
:105848003400F50F780E121E5D85108285118312C3
:105858005D95125B341207B17406121BF08A0E8B29
:105868000FAE0EAF0FE50C2402F50EE50D3400F572
:105878000F80408882898374FFF00508125692745D
:10588800FFF005089002E9E0F50C750D00780C12A0
:105898001E5D7CEA7D0285080C7402250CFA7403EF
:1058A8003400FB12126D7402121BF09002E9E0251D
:1058B80008F508EE4F60718E828F83A3A3A3E0F9E9
:1058C800850E82850F83125B3A12079FE9F509EE70
:1058D80024041252BDE97044E4F514F51578141245
:1058E8001E5D7514E97515027814121E5D7514EAAB
:1058F8007515027814121E5D7408121C26121E7487
:105908007911EEFCEFFD850E82850F83125B3A124A
:1059180008D77408121BF0E9F5096027850C828501
:105928000D83125A1B125DA8E5087003025A011272
:105938005A25850E82850F83125B3A12053B790042
:10594800025A16850882AA82EA9002E97009E024C0
:1059580004900301F08022E0F8900301E0F514E8D8
:105968002404FCE43400FDEC65147001ED70C012F1
:1059780057E194121257D950B6850C82850D83E0F1
:10598800C0E074022A125699D0E0F00508850C820E
:10599800850D83A3E0C0E0125692D0E0125A3785F5
:1059A800820C85830D780C121E5D7404121C26125D
:1059B8001E748510828511831266021207BD740455
:1059C800121BF08A0C8B0DAE0CAF0D85080C7402FF
:1059D800250CF874033400F9EE4F700302587B85E8
:1059E8001882851983E088828983125A37A3E0C018
:1059F800E0125692D0E0025889E509700375090A49
:105A0800850A82850B83125A1B125DA8A9097404A2
:105A180002568A1265F1851282851383229003014A
:105A2800E0F5F0E50884900300F07C007D0322F0A7
:105A380005088518828519832274EC121C4A74FEA5
:105A4800121BDA8A088B098C0E8D0FEA2405FEEBEF
:105A58003400FF851882851983AC82AD838E828FCE
:105A680083125B3A1207B78A0A8B0BEE241812527C
:105A7800BDEA450B7003025B0B125C7D5032851842
:105A880082851983125B3A1208CB8A108B11EA457A
:105A980011606B7912AC0AAD0B85088285098312F7
:105AA8005B3A851082851183121C48E9F50A705803
:105AB800E4F50AF50B780A121E5D8E828F83A3A384
:105AC800E0F50A780A121E5DEE2403125D8C780A4E
:105AD800121E5D8E828F83125B441208DD740612DB
:105AE8001BF0E9F50A7021850C82850D83E0701F93
:105AF800850882850983125B3A1205418011750A6F
:105B08000E8009750A018004E50A6003125D9B8511
:105B18000C82850D83E0600479008002A90A740272
:105B2800121BF07F0C021D1C7C007D03850A8285F8
